:1000000002C100000C945D0D0C94320D0C94070D90
:100010000C94DC0C0C94B10C0C94860C0C945B0CC2
:100020000C94300C21C100001FC100001DC1000054
:100030001BC1000019C1000017C1000015C100005C
:1000400013C1000011C100000FC100000DC100006C
:100050000BC1000009C1000007C100000C94E60BB1
:1000600003C100000C94B00B0C94860BFDC0000083
:10007000FBC00000F9C00000F7C00000F5C00000A0
:10008000F3C00000F1C00000EFC00000EDC00000B0
:10009000EBC00000E9C00000E7C00000E5C00000C0
:1000A000E3C00000E1C00000DFC00000DDC00000D0
:1000B000DBC00000D9C00000D7C00000D5C00000E0
:1000C000D3C00000D1C00000CFC00000CDC00000F0
:1000D000CBC00000C9C00000C7C00000C5C0000000
:1000E000C3C0000000002200250028002B002E00C5
:1000F0003100340002010000050108010B0100007D
:1001000020002300260029002C002F0032000001CF
:10011000000003010601090100000A0B02090C0D91
:100120000E080703040100000000000000000000AA
:1001300000000000000000000000000000000000BF
:10014000000000001211100000000000000000007C
:10015000000000000000000000000000000000009F
:100160002100240027002A002D0030003300010167
:100170000000040107010A010102102020080810F4
:100180002040102040800201020108040201010207
:1001900004081020408080402010080402018004E0
:1001A000020180402010080402010804020101023B
:1001B000040810204080010204081020408005053A
:1001C0000505070508080808020202020A0A0808CD
:1001D00004040404010101010101010103030303FB
:1001E00003030303040707070C0C0C0C0C0C0C0C8A
:1001F0000202020206060606060606060B0B0B0B9B
:100200000B0B0B0B880D11241FBECFEFD1E2DEBF0D
:10021000CDBF00E00CBF12E0A0E0B2E0EEE7FBE2F1
:1002200000E00BBF02C007900D92AC38B107D9F7C0
:1002300023E0ACE8B2E001C01D92A235B207E1F7BD
:1002400011E0C3E0D1E000E006C021970109802F52
:10025000FE010E949313C230D10780E00807A9F77E
:100260000E94BF0D0C94BD15CBCE8CBD9DBD0895D5
:100270000895AF92BF92CF92DF92EF92FF920F93C9
:100280001F93CF93DF936C017B018B01040F151F2C
:10029000EB015E01AE18BF08C017D10759F0699194
:1002A000D601ED91FC910190F081E02DC6011995E8
:1002B000892B79F7C501DF91CF911F910F91FF90A5
:1002C000EF90DF90CF90BF90AF900895FC014481F4
:1002D00055816081718181EA92E0CBCFFC01538D21
:1002E000448D252F30E0842F90E0821B930B541710
:1002F00010F0CF96089501970895FC01918D828D9D
:10030000981761F0A28DAE0FBF2FB11D5D968C9135
:10031000928D9F5F9F73928F90E008958FEF9FEF74
:100320000895FC01918D828D981731F0828DE80F30
:10033000F11D858D90E008958FEF9FEF0895FC01EA
:10034000918D228D892F90E0805C9F4F821B9109B7
:100350008F739927089581EA92E0F1DF21E0892BDC
:1003600009F420E0822F0895FC01A48DA80FB92F75
:10037000B11DA35ABF4F2C91848D90E001968F73CD
:100380009927848FA689B7892C93A089B1898C91EC
:10039000837080648C93938D848D981306C002883B
:1003A000F389E02D80818F7D80830895EF92FF9205
:1003B0000F931F93CF93DF93EC0181E0888F9B8D88
:1003C0008C8D98131AC0E889F989808185FF15C042
:1003D0009FB7F894EE89FF896083E889F989808165
:1003E0008370806480839FBF81E090E0DF91CF9134
:1003F0001F910F91FF90EF900895F62E0B8D10E056
:100400000F5F1F4F0F731127E02E8C8D8E110BC0C5
:100410000FB607FCFACFE889F989808185FFF5CF0F
:10042000CE01A2DFF2CFEB8DEC0FFD2FF11DE35AD1
:10043000FF4FF0829FB7F8940B8FEA89FB89808188
:100440008062D0CFCF93DF93EC01888D8823B1F009
:10045000AA89BB89E889F9898C9185FD03C08081CF
:1004600086FD0CC00FB607FCF7CF8C9185FFF2CF4D
:10047000808185FFEDCFCE0177DFEACFDF91CF918D
:10048000089580E090E0892B21F065DF81110E94C2
:10049000000080E090E0892B49F080E090E0892B1B
:1004A00029F00E94000081110E94000080E090E08D
:1004B000892B49F080E090E0892B29F00E94000010
:1004C00081110E94000080E090E0892B49F080E0DB
:1004D00090E0892B29F00E94000081110C9400000B
:1004E00008958150823108F05AC0E82FF0E0882743
:1004F000E358FD4F8F4F0C9493139D02A1028F027E
:1005000095029902CF02A402AA02AE02B402B80276
:10051000BC02C202C602CF02CA02D002D40280913B
:1005200080008F77809380000895809180008F7D78
:10053000F9CF80918000877FF5CF84B58F7784BD18
:10054000089584B58F7DFBCF8091B0008F77809325
:10055000B00008958091B0008F7DF9CF8091900018
:100560008F77809390000895809190008F7DF9CFD0
:1005700080919000877FF5CF8091A0008F77809346
:10058000A00008958091A0008F7DF9CF8091A000F8
:10059000877FF5CF809120018F7780932001089588
:1005A000809120018F7DF9CF80912001877FF5CF49
:1005B000CF93DF93282F30E0F901E85EFE4F84915E
:1005C000F901E858FE4FD491F901E254FE4FC4916D
:1005D000CC2399F0811185DFEC2FF0E0EE0FFF1FA7
:1005E000E250FF4FA591B491EC91ED2381E090E0B2
:1005F00009F480E0DF91CF91089580E090E0FACF98
:10060000CF92DF92EF92FF92CF93DF9382E0D0DF21
:10061000EC0183E0CDDFC0909D02D0909E02E0907F
:100620009F02F090A00261E070E0C817D90711F4B2
:1006300070E060E0072E000C880B990B0E942312DB
:10064000A70196010E942B1360939D0270939E0256
:1006500080939F029093A002DF91CF91FF90EF9043
:10066000DF90CF900895CF92DF92EF92FF92CF93D9
:10067000DF9382E09DDFEC0183E09ADFC0909D0272
:10068000D0909E02E0909F02F090A00261E070E0A6
:10069000C817D90711F470E060E071956195710990
:1006A000072E000C880B990B0E942312A7019601BC
:1006B0000E942B1360939D0270939E0280939F0271
:1006C0009093A002DF91CF91FF90EF90DF90CF90B9
:1006D00008951F93CF93DF93282F30E0F901E85E50
:1006E000FE4F8491F901E858FE4FD491F901E2548C
:1006F000FE4FC491CC23A1F0162F8111F2DEEC2F16
:10070000F0E0EE0FFF1FEC51FF4FA591B4918FB7B2
:10071000F894EC91111108C0D095DE23DC938FBFC3
:10072000DF91CF911F910895DE2BF8CFCF93DF9308
:1007300090E0FC01E858FE4F249182549E4FFC014A
:1007400084918823D1F090E0880F991FFC01E25A30
:10075000FE4FA591B491FC01EC51FF4FC591D4918E
:1007600061110EC09FB7F8948C91E22FE0958E2313
:100770008C932881E223E8839FBFDF91CF91089576
:100780008FB7F894EC91E22BEC938FBFF6CF8633C2
:1007900008F0865320917B00982F9870277F922B2A
:1007A00090937B008770806480937C0080917A00B6
:1007B000806480937A0080917A0086FDFCCF8091DE
:1007C00078009091790008953FB7F8948091910254
:1007D00090919202A0919302B091940226B5A89BA9
:1007E00005C02F3F19F00196A11DB11D3FBFBA2FC3
:1007F000A92F982F8827BC01CD01620F711D811D83
:10080000911D42E0660F771F881F991F4A95D1F707
:1008100008958F929F92AF92BF92CF92DF92EF9204
:10082000FF924B015C01D0DF6B017C01CDDF6C19C5
:100830007D098E099F09683E734081059105B0F3DB
:1008400021E0821A9108A108B10888EEC80E83E061
:10085000D81EE11CF11C81149104A104B10431F7EC
:10086000FF90EF90DF90CF90BF90AF909F908F90D0
:1008700008952FB7F89460918D0270918E02809147
:100880008F02909190022FBF08950F931F93F1DF75
:100890006093A9027093AA028093AB029093AC027A
:1008A00081EA92E02ADD97FF1CC0E3DF0091A902F4
:1008B0001091AA022091AB023091AC02601B710B27
:1008C000820B930B0091A5021091A6022091A70222
:1008D0003091A802601771078207930708F38FEF22
:1008E0009FEF1F910F910895E82FF0E0DF01AA0F0D
:1008F000BB1FA050BE4F11967C936E93883008F0BA
:1009000069C08827E957FB4F8F4F0C949313BD04A0
:10091000C5048F049704A304B004D104DE048091BD
:1009200069008C7F482B40936900E89A0895809174
:100930006900837F440F551F440F551F482B409378
:100940006900E99A0895809169008F7C74E0440FF2
:10095000551F7A95E1F7482B40936900EA9A08956C
:10096000809169008F7366E0440F551F6A95E1F727
:10097000482B40936900EB9A089580916A008C7F20
:10098000482B40936A00EC9A089580916A00837F17
:10099000440F551F440F551F482B40936A00ED9A92
:1009A000089580916A008F7C24E0440F551F2A959A
:1009B000E1F7482B40936A00EE9A089580916A000F
:1009C0008F7396E0440F551F9A95E1F7482B40939B
:1009D0006A00EF9A08950895BC016E5F7F4FDC01B5
:1009E000ED91FC910190F081E02D40E0199591E0AE
:1009F000811190E0892F089508958EBD00000DB4F7
:100A000007FEFDCF8EB50895DF92EF92FF920F9310
:100A10001F93CF93DF937C01062FD42E152F83E5F0
:100A200090E023DC60E0F701868553DE82E1E5DFBC
:100A3000CD2DD12F0C0F1D2F111DC017D10719F06F
:100A40008991DBDFFACF61E0F7018685DF91CF91F5
:100A50001F910F91FF90EF90DF903BCE1F93CF93AC
:100A6000DF93EC01162F83E590E0FFDB60E08E85DD
:100A700030DE812F8068C1DF80E0BFDF182F61E0AA
:100A80008E8527DE812FDF91CF911F9108950F93DF
:100A90001F93CF93DF93EC01062F142F83E590E093
:100AA000E4DB60E08E8515DE802FA7DF812FA5DFD8
:100AB00061E08E85DF91CF911F910F910ACECF9289
:100AC000DF92EF92FF920F931F93CF93DF93EC018E
:100AD0006B01142F790140E062E0D9DF44E06AE065
:100AE000CE01D5DF40E864E1CE01D1DFA601612F60
:100AF000CE018ADF43E062E0CE01C9DF08E813E1FE
:100B00006AE0CE01ABDF82FF18C040E062E0CE01B8
:100B1000BEDF64E4CE01A2DFF701808362E4CE0190
:100B20009DDFF701818380E0DF91CF911F910F91CD
:100B3000FF90EF90DF90CF9008950150110901F7D9
:100B400083E0F2CF3F924F925F926F927F928F92AB
:100B50009F92AF92BF92CF92DF92EF92FF920F934C
:100B60001F93CF93DF931F921F92CDB7DEB74C0137
:100B70002B01D42E390180E0E114F10411F0F701CA
:100B80008081BC2CB29490EFB922B80E40E062E0B4
:100B9000C4017DDF4FE768E0C40179DF40E864E12C
:100BA000C40175DFA2016D2DC4012EDF4B2D6AE15A
:100BB000C4016DDF4CE062E0C40169DF6AE1C40199
:100BC0004DDF482F40686AE1C40161DF20ED422E0D
:100BD00027E0522E68E0C40141DF982F907309F09E
:100BE000ACC080FD04C0F1E04F1A510899F783E0D2
:100BF0008AC06114710409F464C00115110509F477
:100C000060C064E1C4012ADFB82EF80180818B1531
:100C100008F48DC0B082BB20A9F183E590E025DB0C
:100C200060E0F401868555DDBA9482E9E6DECC20E9
:100C3000A9F08FEF90E09C0102C0220F331FCA94ED
:100C4000E2F7690182E9D9DE9C2D9095F3012081BC
:100C500092238C21982B9083CC24C39423014C0C99
:100C6000511CCB1438F482E9C8DEF20181932F01C4
:100C7000C394F7CF80E0C1DEF201808361E0F4012C
:100C8000868527DD68E1C401E9DE8770E114F1049F
:100C900011F0F701808333FC4CC06114710409F436
:100CA0004AC00115110509F446C0AA2009F443C041
:100CB000F8014081413039F4843009F047C08FEFAA
:100CC00022C080E0E8CF423008F440C081113EC02D
:100CD00042509E012F5F3F4FB301C401F0DE8111EE
:100CE00012C0F8019081690E711CF30132972081C6
:100CF000998129132BC0F1E06F1A7108F30120814B
:100D00009A81291323C00F900F90DF91CF911F91EB
:100D10000F91FF90EF90DF90CF90BF90AF909F909A
:100D20008F907F906F905F904F903F90089584E0F8
:100D3000EACF82E0E8CF80E0E6CF6CE0C4018EDE4F
:100D4000382E837109F455CF81E0DDCF87E0DBCF0A
:100D50008F929F92AF92CF92EF92FF920F931F9339
:100D6000CF93DF9300D01F921F92CDB7DEB74C0117
:100D700082E08D8340E064E2C40189DE40E066E207
:100D8000C40185DE46E268E4C40181DE86E28B832D
:100D90008D818230C0F16CE1C40160DE482F4F7755
:100DA0006CE1C40174DE87E08C83A12CC12CCE01E0
:100DB00004967C018E010B5F1F4F9E012F5F3F4FFA
:100DC00041E0BE016D5F7F4FC401BCDE982F8111F1
:100DD00017C08D818230B9F48C81811114C081E0FB
:100DE0000F900F900F900F900F90DF91CF911F9168
:100DF0000F91FF90EF90CF90AF909F908F900895BC
:100E000081E0923069F380E0EBCF2F923F924F92D6
:100E10005F926F927F928F929F92AF92BF92CF928A
:100E2000DF92EF92FF920F931F93CF93DF93CDB793
:100E3000DEB72D970FB6F894DEBF0FBECDBF16E01C
:100E4000413508F043C1342E3B014C016CE106DE14
:100E5000482F4F776CE1C4011ADE83E98983332080
:100E600029F081E0F3019081953008F480E022249C
:100E70002394B12C9B2D990F990F990FD32CD91A2C
:100E8000D7FCD12C32E0882319F098E89B8333E01B
:100E900021E09D2D977009F420E09D2D9595959565
:100EA0009595290FC9F094E0811193E0291708F472
:100EB000922FEB2DF0E03196E60DF71D232F419197
:100EC000A1E0B0E0AC0FBD1FA20FB11D4C932F5F8E
:100ED000422F431B491798F3882311F0F8E0DF0EE7
:100EE0008FE18D150CF07EC090E79A838B819C81F9
:100EF00089279D8189279E8189278F839E01285F6D
:100F00003F4F47E0BE016F5F7F4FC401D8DD182F10
:100F10008111DCC01A86E3E0EB87DC86CE01079600
:100F20002C0199E09D87CA844C2D4295407F4C0D41
:100F30006AE1C401ACDDA12CCE010A967C018E01D0
:100F4000055F1F4F92014D85BE016F5F7F4FC4014A
:100F5000F9DD182F823009F064C06CE1C4017EDD38
:100F600085FDB4C08F7109F480E2282F30E04D2D4B
:100F7000DD0C550B421753070CF09CC0D82EE82F00
:100F8000E595E595E595EF5F982F977081E009F479
:100F900080E0E80F81E090E08C0F9D1F8E0F911D87
:100FA000FC01215031092770332781E090E002C015
:100FB000880F991F2A95E2F79C018081822B8083FC
:100FC0008FCF85E98983332031F081E0F30190816F
:100FD000983008F04FCF80E04DCF87E9898326E035
:100FE000B22EF9CF9D2D97709A878D2D8595859579
:100FF00085958E5F282F2295207F290F2A8321E057
:10100000911101C020E0280F2D8744244394512CD6
:101010004C0E5D1E480E511CE9E0E81BEB87DC8698
:1010200082CF811153C080E2D82E9C8590320CF47F
:101030005BCF8B81883809F03FC083E093E0EB2DD4
:10104000F0E03196E60DF71D980FA1E0B0E0AC0F8F
:10105000BD1FA80FB11D2C9121938F5F8913F5CF70
:10106000BB84E3E0BE124CC08A85811149C09E0159
:101070002D5F3F4F41E0B201C40121DD182F8111E6
:1010800025C09B81F201818198133CC09C818281A3
:10109000981338C0808182FF12C02394F2E02F168B
:1010A00009F48FCF83E0281609F497CF91E0291631
:1010B00009F4D3CE15E00AC082E094E0C0CFF3017A
:1010C0008387822D880F820D8F5F8083812F2D96DD
:1010D0000FB6F894DEBF0FBECDBFDF91CF911F9149
:1010E0000F91FF90EF90DF90CF90BF90AF909F90C7
:1010F0008F907F906F905F904F903F902F900895CA
:1011000011E0E4CF17E0E2CF60E084E0E2DA60E0F3
:1011100085E0DFDA60E086E0DCDA60E087E0D9DAFB
:1011200060E088E0D6DA60E089E0D3DA60E08AE067
:10113000D0DA60E08BE0CDCA60E084E0CADA61E03A
:1011400085E0C7DA61E086E0C4DA61E087E0C1CA21
:1011500061E084E0BEDA60E085E0BBDA61E086E071
:10116000B8DA61E087E0B5CAFC0101900020E9F738
:101170003197AF01481B590BBC0181EA92E079C855
:101180008F929F92AF92BF920F931F93CF93DF9353
:10119000CDB7DEB7A1970FB6F894DEBF0FBECDBFB7
:1011A00019A2423008F44AE08E010F5D1F4F842ED1
:1011B000912CB12CA12CA50194010E94F912E62FCB
:1011C000B901CA01EA30ECF4E05DD801EE938D017B
:1011D000232B242B252B79F790E080E0109711F03A
:1011E000CD01C2DFA1960FB6F894DEBF0FBECDBF12
:1011F000DF91CF911F910F91BF90AF909F908F90F3
:101200000895E95CE2CFCF93DF93AEDFEC0182E398
:1012100092E0AADF8C0F9D1FDF91CF910895CF93AD
:10122000DF9354D8EC0182E392E09EDF8C0F9D1F88
:10123000DF91CF910895CF92DF92EF92FF92CF93FB
:10124000DF936C01990FEE08FF08F7FE1CC06DE2FA
:1012500081EA92E0ABD8EC0166277727CB016C19C5
:101260007D098E099F094AE08BDFC80FD91F82E3F1
:1012700092E07ADF8C0F9D1FDF91CF91FF90EF906E
:10128000DF90CF9008954AE0C701B60179DFEC0105
:10129000EECFCF93DF93EC0188819981009711F015
:1012A0000E943714198218821D821C821B821A82A6
:1012B000DF91CF910895FC0180819181009711F019
:1012C0000C94371408950F931F93CF93DF93EC0181
:1012D00088819981009759F02A813B812617370729
:1012E00030F081E0DF91CF911F910F9108958B0134
:1012F0006F5F7F4F0E94C014009759F099838883D5
:101300001B830A832C813D81232B59F7FC0110821A
:10131000E8CF80E0E7CFEF92FF920F931F93CF9338
:10132000DF936115710541F480E0DF91CF911F914A
:101330000F91FF90EF90089541155105A9F07B01A1
:10134000EC010C811D81040F151FB801BCDF88233F
:1013500059F3288139818C819D81B701820F931FB8
:101360000E94B6151D830C8381E0DFCF0F931F937E
:10137000CF93DF931F921F92CDB7DEB78C016983A5
:101380001A8241E050E0BE016F5F7F4FC4DF8111E0
:1013900002C0C8017EDFC8010F900F90DF91CF918E
:1013A0001F910F910895EF92FF920F931F93CF9388
:1013B000DF93EC017B018A01BA0185DF81110AC04C
:1013C000CE0167DFCE01DF91CF911F910F91FF908A
:1013D000EF9008951D830C83B701888199810E9445
:1013E000B615F0CFCF93DF93EC01FB01861797077B
:1013F00041F0608171816115710539F04481558139
:10140000D2DFCE01DF91CF91089543DFFACFFC0107
:101410001182108213821282158214826115710565
:1014200049F0FB0101900020E9F73197AF01461B1D
:10143000570BB9CF0895DF92EF92FF920F931F934E
:10144000CF93DF93CDB7DEB765970FB6F894DEBFC5
:101450000FBECDBF05E010E061E08EE13AD960E05B
:101460008FE137D962E370E080E090E0D2D960E0AC
:101470008EE12FD961E08FE12CD962E370E080E04A
:1014800090E0C7D90150110939F78EE393E060DC91
:10149000882309F42AC18EE393E09EDA882309F4B5
:1014A00024C188E392E060DE64E372E0CE014096FE
:1014B000AEDFD12CCE0101967C0180914003D8167D
:1014C00008F04AC00D2D10E0025C1C4FF80183812A
:1014D000803108F418C184E392E046DEF8016381AC
:1014E00070E090E080E040E14BDEF801838165E34D
:1014F00072E0803110F064E372E0C70188DF4D8153
:101500005E8169817A81CE01409605DFC701D3DE15
:10151000F80183811B861A861D861C861F861E86FF
:1015200040E1B70190E064D7F70101900020E9F7AE
:101530003197AF014E195F09B701CE010A9633DF2B
:101540004E855F856A857B85CE014096E4DECE01BF
:101550000A96B1DED394B1CF82E392E005DE82E455
:1015600092E051DE088919890115110571F0F80121
:1015700081918F01882349F0082E000C990B0E945D
:101580009C15F80131978083F2CFCE01409647DE5B
:101590008C899D89892B09F447C0E888F9886CE417
:1015A00072E0C7010E94AD1511E0892B09F010E02F
:1015B00065E572E0C7010E94AD1521E0892B09F0B5
:1015C00020E0212B09F48EC003E010E061E08EE101
:1015D00080D862E370E080E090E01BD960E08EE1AB
:1015E00078D862E370E080E090E013D901501109EF
:1015F00069F780E20E94D80201E0892B09F400E03B
:1016000081E20E94D80211E0892B09F410E0002346
:1016100069F0012F11110AC08FDD61E08EE159D808
:1016200060E08FE156D8E5CF10E0CACF6DDD011143
:1016300018C01123B1F08CDD60E08EE14AD861E082
:101640008FE147D880E20E94D80201E0892B09F49B
:1016500000E081E20E94D80211E0892B41F710E0FE
:10166000E6CF60E08EE135D860E08FE132D84CDD26
:1016700080E20E94D802019709F0BBCF81E20E946C
:10168000D802019709F0B5CF04E110E061E08EE1E6
:1016900020D860E08FE11DD862E370E080E090E048
:1016A000B8D860E08EE115D861E08FE112D862E32E
:1016B00070E080E090E0ADD860E08EE10AD860E0B4
:1016C0008FE107D80150110909F768EE73E080E057
:1016D00090E09FD810929D0210929E0210929F025D
:1016E0001092A002CE014096E6DD65960FB6F89402
:1016F000DEBF0FBECDBFDF91CF911F910F91FF9045
:10170000EF90DF90089585E392E0E7CE1F920F926D
:101710000FB60F9211240BB60F922F933F934F9356
:101720005F936F937F938F939F93AF93BF93EF9349
:10173000FF9381EA92E00E94B401FF91EF91BF9183
:10174000AF919F918F917F916F915F914F913F9159
:101750002F910F900BBE0F900FBE0F901F901895FA
:101760001F920F920FB60F9211240BB60F922F9368
:101770008F939F93EF93FF93E091B102F091B202A8
:101780008081E091B702F091B80282FD1DC0908186
:101790008091BA028F5F8F732091BB02821741F054
:1017A000E091BA02F0E0EF55FD4F958F8093BA02B9
:1017B000FF91EF919F918F912F910F900BBE0F9002
:1017C0000FBE0F901F9018958081F2CF1F920F923D
:1017D0000FB60F9211242F933F938F939F93AF9344
:1017E000BF9380918D0290918E02A0918F02B09153
:1017F000900230918C0223E0230F2D3758F501968B
:10180000A11DB11D20938C0280938D0290938E02B6
:10181000A0938F02B09390028091910290919202D6
:10182000A0919302B09194020196A11DB11D8093E5
:10183000910290939202A0939302B0939402BF916D
:10184000AF919F918F913F912F910F900FBE0F906D
:101850001F90189526E8230F0296A11DB11DD2CF27
:101860001F920F920FB60F9211240BB60F922F9367
:101870003F934F935F936F937F938F939F93AF9318
:10188000BF93EF93FF93E0910E02F0910F02199531
:10189000FF91EF91BF91AF919F918F917F916F9148
:1018A0005F914F913F912F910F900BBE0F900FBE04
:1018B0000F901F9018951F920F920FB60F92112440
:1018C0000BB60F922F933F934F935F936F937F933A
:1018D0008F939F93AF93BF93EF93FF93E0910C028D
:1018E000F0910D021995FF91EF91BF91AF919F91EA
:1018F0008F917F916F915F914F913F912F910F90B9
:101900000BBE0F900FBE0F901F9018951F920F9255
:101910000FB60F9211240BB60F922F933F934F9354
:101920005F936F937F938F939F93AF93BF93EF9347
:10193000FF93E0910202F09103021995FF91EF915C
:10194000BF91AF919F918F917F916F915F914F91D7
:101950003F912F910F900BBE0F900FBE0F901F90D5
:1019600018951F920F920FB60F9211240BB60F927B
:101970002F933F934F935F936F937F938F939F9397
:10198000AF93BF93EF93FF93E0910002F0910102B8
:101990001995FF91EF91BF91AF919F918F917F9199
:1019A0006F915F914F913F912F910F900BBE0F90D0
:1019B0000FBE0F901F9018951F920F920FB60F92A7
:1019C00011240BB60F922F933F934F935F936F9316
:1019D0007F938F939F93AF93BF93EF93FF93E09188
:1019E0000A02F0910B021995FF91EF91BF91AF910F
:1019F0009F918F917F916F915F914F913F912F9127
:101A00000F900BBE0F900FBE0F901F9018951F9256
:101A10000F920FB60F9211240BB60F922F933F9394
:101A20004F935F936F937F938F939F93AF93BF93E6
:101A3000EF93FF93E0910802F09109021995FF914D
:101A4000EF91BF91AF919F918F917F916F915F9136
:101A50004F913F912F910F900BBE0F900FBE0F90A3
:101A60001F9018951F920F920FB60F9211240BB66C
:101A70000F922F933F934F935F936F937F938F9327
:101A80009F93AF93BF93EF93FF93E0910602F09182
:101A900007021995FF91EF91BF91AF919F918F919F
:101AA0007F916F915F914F913F912F910F900BBE5E
:101AB0000F900FBE0F901F9018951F920F920FB6A8
:101AC0000F9211240BB60F922F933F934F935F9376
:101AD0006F937F938F939F93AF93BF93EF93FF93F6
:101AE000E0910402F09105021995FF91EF91BF91E9
:101AF000AF919F918F917F916F915F914F913F91A6
:101B00002F910F900BBE0F900FBE0F901F90189546
:101B1000E1EAF2E01382128288EE93E0A0E0B0E006
:101B200084839583A683B7838AE192E0918380833F
:101B300085EC90E09587848784EC90E09787868792
:101B400080EC90E0918B808B81EC90E0938B828B8A
:101B500082EC90E0958B848B86EC90E0978B868B63
:101B6000118E128E138E148EEEE3F3E08CE292E06F
:101B70009183808385E3868781E387870895CF9368
:101B8000DF93CDB7DEB76E970FB6F894DEBF0FBE0A
:101B9000CDBF789484B5826084BD84B5816084BDF6
:101BA00085B5826085BD85B5816085BD80916E00FB
:101BB000816080936E00109281008091810082602C
:101BC0008093810080918100816080938100809169
:101BD00080008160809380008091B1008460809358
:101BE000B1008091B00081608093B000809191003D
:101BF0008260809391008091910081608093910038
:101C0000809190008160809390008091A10082601B
:101C10008093A1008091A10081608093A1008091B8
:101C2000A00081608093A000809121018260809358
:101C30002101809121018160809321018091200107
:101C400081608093200180917A00846080937A0083
:101C500080917A00826080937A0080917A0081601E
:101C600080937A0080917A00806880937A00109245
:101C7000C10060E082E00E94960343E050E060E033
:101C800073E080E00E94740460E083E00E949603A9
:101C900043E050E063E373E081E00E94740461E09C
:101CA00084E00E94960361E085E00E94960361E073
:101CB00086E00E94960361E087E00E94960361E05F
:101CC00088E00E94960361E089E00E94960361E04B
:101CD0008AE00E94960361E08BE00E94960361E037
:101CE0008EE10E94960361E08FE10E94960360E01E
:101CF00080E20E94960360E081E20E94960360E029
:101D000082E10E94960341E050E06BE17AE085E0D9
:101D10000E94740460E083E10E94960361E085E321
:101D20000E9496031FB7F89480919502811127C0F5
:101D3000E3EFF1E08491EDEAF1E09491E82FF0E037
:101D4000EE0FFF1FE25AFE4FA591B491EC91E923EB
:101D500021F461E085E30E94690361E085E30E946C
:101D600096038CB580618CBD8CB580648CBD61E0C0
:101D700084E30E94960361E083E30E9496038091CE
:101D800095028F5F809395021FBF61E080914C03A5
:101D90000E94960361E080914C030E946903809148
:101DA0004D038F3F09F4B6C060E00E949603809116
:101DB0004D030E94D802892B09F0ACC061E08091EC
:101DC0004D030E94960360E080914D030E946903D9
:101DD00083E090E00197F1F761E080914D030E946C
:101DE000690362E370E080E090E00E94090440E053
:101DF00064E28EE393E00E94470540E066E28EE3F2
:101E000093E00E94470546E268E48EE393E00E9477
:101E1000470540E864E58EE393E00E94470549EA00
:101E200066E58EE393E00E94470543E068E58EE3B4
:101E300093E00E94470548EE6AE58EE393E00E9436
:101E4000470540E46AE28EE393E00E9447054DE3D4
:101E500062E28EE393E00E94470568E28EE393E03E
:101E60000E942E05982F9370933039F0482F4360CD
:101E700068E28EE393E00E944705E091B102F091A1
:101E8000B20282E08083E091AD02F091AE02108256
:101E9000E091AF02F091B0028FEC80831092B90212
:101EA000E091B502F091B60286E08083E091B30242
:101EB000F091B402808180618083E091B302F0915F
:101EC000B402808188608083E091B302F091B40213
:101ED000808180688083E091B302F091B4028081B8
:101EE0008F7D808389E2382E0AE510E061E085E38A
:101EF0000E94690381EA92E00E949F01892B09F503
:101F00008EE592E080D968EE73E080E090E00E9478
:101F10000904F0CF4FE062E08EE393E00E944705B2
:101F200013E062E370E080E090E00E94090462E068
:101F30008EE393E00E942E0584FF59CF115089F75C
:101F400056CF60E085E30E94690364E372E0CE014E
:101F500049965DDA64E372E0CE01019658DA0E9498
:101F6000450497FD0BC08F83188641E050E0BE0109
:101F7000695F7F4FCE010196CED9F1CF898D9A8DC1
:101F8000009709F4EFC069817A816115710509F440
:101F9000E8C04B8D5C8D2D813E814217530708F4BC
:101FA000E0C0E4D58D819E819E8F8D8F1E821D8223
:101FB000CE01019680D9CE01499631D964E372E011
:101FC000CE01439624DA64E372E0CE010D961FDA67
:101FD00064E372E0CE0107961ADAF12CE12C8D8DC4
:101FE0009E8DE816F90628F4E98DFA8D309709F0F0
:101FF000CAC010929602E6E9F2E0D0801A821982F5
:102000001C821B821E821D82BE016D5E7F4FCE012F
:102010000196E8D96D2DCE010196A8D9BC01CE015B
:102020004396E0D9CE01019646D92FEFE21AF20A83
:1020300083E0E816F10499F68D8D9E8DE816F90679
:1020400028F4E98DFA8D309709F0A0C0109296021D
:10205000E6E9F2E0D0801A8219821C821B821E827D
:102060001D82BE01635F7F4FCE010196BBD96D2DEE
:10207000CE0101967BD9BC01CE010D96B3D9CE011C
:10208000019619D92FEFE21AF20A86E0E816F10458
:1020900099F68D8D9E8DE816F90628F4E98DFA8D56
:1020A000309709F076C010929602E6E9F2E0D0800F
:1020B0001A8219821C821B821E821D82BE01695FE8
:1020C0007F4FCE0101968ED96D2DCE0101964ED94E
:1020D000BC01CE01079686D9CE010196ECD82FEF30
:1020E000E21AF20A89E0E816F10499F6CE01439665
:1020F00096D8CE010D9693D8CE01079690D8CE01F2
:1021000049968DD88B899C89009709F445C035D1B3
:102110007B018D859E85412C512C3201009711F059
:102120002CD12B018F819885812C912C5401009703
:1021300011F023D14B012EE6E216F10489F56091EE
:102140009D0270919E0280919F029091A00220E0DA
:1021500030E0A901E4D218160CF0DCC00E94A808F7
:10216000EECF85D389819A819A8F898F8B819C81CB
:102170009C8F8B8F8D819E819E8F8D8F1A8219826D
:102180001C821B8213CFEE0DFF1D37CFEE0DFF1DFE
:1021900061CFEE0DFF1D8BCF60E070E0CB01B8CFBB
:1021A00088E7E816F10409F0B7C0349C6001359C5B
:1021B000D00C11240D2C000CEE08FF0840909D025D
:1021C00050909E0260909F027090A002C701B601DD
:1021D0003AD1A3019201A3D218161CF40E949C08C4
:1021E000EDCF0E94840868EE73E080E090E00E94EA
:1021F00009047801E818F908C7011DD886E30E9490
:10220000C70390939C0280939B029701FF0C440BA1
:10221000550B2A50310941095109A8E9B3E0DFD132
:102220002CE330E040E050E0BED149015A018CE39C
:10223000880E911CA11CB11C740181E792E00E94E0
:102240000309C4010E941B0968EE73E080E090E07E
:102250000E9409040E9439044B015C01809297029C
:1022600090929802A0929902B0929A0280919B0259
:1022700090919C028E159F0514F561E088E00E9404
:10228000690360E089E00E94690361E08AE00E94DE
:10229000690361E08BE00E94690386E30E94C70343
:1022A00090939C0280939B020E94390468197909DB
:1022B0008A099B096131774281059105B8F20E9434
:1022C000840880919B0290919C02E816F90614F50F
:1022D00060E088E00E94690361E089E00E94690390
:1022E00061E08AE00E94690361E08BE00E9469037B
:1022F00086E30E94C70390939C0280939B020E94F6
:102300003904681979098A099B0961317742810585
:102310009105B8F20E94840868EE73E080E090E0D6
:102320000E940904CE0143960E9466018AE492E06D
:102330000E94B408CE010D960E9466018AE492E0E4
:102340000E94B408CE0107960E940F0982E892E02D
:102350000E940309CE0107960E945B09CE010D96EB
:102360000E945B09CE0143960E945B09CE0149960B
:102370000E945B090E944102B9CD1F93FC0199277D
:102380008827BC01E89411911032E9F3193010F05C
:102390001E30C8F31B3249F01D3241F4689405C069
:1023A00012D0610F711D811D911D119110531A30B2
:1023B000B8F33EF490958095709561957F4F8F4F5F
:1023C0009F4F1F910895592F482F372F262F660FA3
:1023D000771F881F991F660F771F881F991F620F2D
:1023E000731F841F951F660F771F881F991F0895FD
:1023F000BB27FB015527AA27880F991FAA1FA417DF
:1024000010F0A41B83955051B9F7A05DAA3308F0D2
:10241000A95DA193009779F7B111B1931192CB0106
:1024200000C0DC01FC01672F71917723E1F732973F
:1024300004C07C916D9370836291AE17BF07C8F39F
:102440000895E89409C097FB3EF4909580957095A7
:1024500061957F4F8F4F9F4F9923A9F0F92F96E9F0
:10246000BB279395F695879577956795B795F11165
:10247000F8CFFAF4BB0F11F460FF1BC06F5F7F4F02
:102480008F4F9F4F16C0882311F096E911C0772314
:1024900021F09EE8872F762F05C0662371F096E81D
:1024A000862F70E060E02AF09A95660F771F881FEC
:1024B000DAF7880F9695879597F90895990F000890
:1024C000550FAA0BE0E8FEEF16161706E807F90706
:1024D000C0F012161306E407F50798F0621B730BA1
:1024E000840B950B39F40A2661F0232B242B252B22
:1024F00021F408950A2609F4A140A6958FEF811DC5
:10250000811D089597F99F6780E870E060E0089565
:102510009FEF80EC089500240A94161617061806FB
:102520000906089500240A941216130614060506D7
:102530000895092E0394000C11F4882352F0BB0F68
:1025400040F4BF2B11F460FF04C06F5F7F4F8F4FCB
:102550009F4F089557FD9058440F551F59F05F3F06
:1025600071F04795880F97FB991F61F09F3F79F0B5
:1025700087950895121613061406551FF2CF469537
:10258000F1DF08C0161617061806991FF1CF8695B9
:102590007105610508940895E894BB27662777279D
:1025A000CB0197F90895052E97FB16F400940FD0F0
:1025B00057FD05D01ED007FC02D046F408C0509548
:1025C0004095309521953F4F4F4F5F4F089590951F
:1025D0008095709561957F4F8F4F9F4F08952BD0B9
:1025E000A59F900DB49F900DA49F800D911D112467
:1025F0000895A1E21A2EAA1BBB1BFD010DC0AA1F44
:10260000BB1FEE1FFF1FA217B307E407F50720F05B
:10261000A21BB30BE40BF50B661F771F881F991FD6
:102620001A9469F760957095809590959B01AC011F
:10263000BD01CF010895A29FB001B39FC001A39F28
:10264000700D811D1124911DB29F700D811D1124EB
:10265000911D08955058BB27AA270ED06ACF5BDF83
:1026600030F060DF20F031F49F3F11F41EF450CFC2
:102670000EF4E095E7FB46CFE92F6CDF80F3BA1745
:10268000620773078407950718F071F49EF584CFED
:102690000EF4E0950B2EBA2FA02D0B01B90190017D
:1026A0000C01CA01A0011124FF27591B99F0593FC1
:1026B00050F4503E68F11A16F040A22F232F342F09
:1026C0004427585FF3CF469537952795A795F04057
:1026D0005395C9F77EF41F16BA0B620B730B840B6C
:1026E000BAF09150A1F0FF0FBB1F661F771F881F24
:1026F000C2F70EC0BA0F621F731F841F48F487957C
:1027000077956795B795F7959E3F08F0B3CF93956A
:10271000880F08F09927EE0F979587950895CEDEDC
:1027200008F48FEF0895EE0FFF1F881F8BBF0790EF
:10273000F691E02D19940F931F93CF93DF9382307E
:10274000910510F482E090E0E0915003F091510384
:1027500030E020E0B0E0A0E0309799F42115310599
:1027600009F44AC0281B390B24303105D8F58A8179
:102770009B816115710589F1FB0193838283FE01C1
:1027800011C0408151810281138148175907E0F03F
:102790004817590799F4109761F012960C93129705
:1027A00013961C933296CF01DF91CF911F910F9119
:1027B00008950093500310935103F4CF2115310570
:1027C00051F04217530738F0A901DB019A01BD010E
:1027D000DF01F801C1CFEF01F9CF9093510380934E
:1027E0005003CDCFFE01E20FF31F8193919322504E
:1027F000310939832883D7CF20914E0330914F037D
:10280000232B41F4209112023091130230934F0395
:1028100020934E03209110023091110221153105B1
:1028200041F42DB73EB74091140250911502241B7C
:10283000350BE0914E03F0914F03E217F307A0F43C
:102840002E1B3F0B2817390778F0AC014E5F5F4F06
:102850002417350748F04E0F5F1F50934F034093E6
:102860004E03819391939FCFF0E0E0E09CCFCF9314
:10287000DF930097E9F0FC01329713821282A09156
:102880005003B0915103ED0130E020E01097A1F426
:1028900020813181820F931F20914E0330914F038D
:1028A0002817390709F061C0F0934F03E0934E03F6
:1028B000DF91CF910895EA01CE17DF07E8F54A814D
:1028C0005B819E0141155105B1F7E901FB83EA8364
:1028D00049915991C40FD51FEC17FD0761F4808110
:1028E00091810296840F951FE901998388838281E3
:1028F00093819B838A83F0E0E0E012968D919C9116
:1029000013970097B9F52D913C911197CD0102963F
:10291000820F931F20914E0330914F0328173907E0
:1029200039F6309751F51092510310925003B0933D
:102930004F03A0934E03BCCFD383C2834081518108
:10294000840F951FC817D90761F44E5F5F4F8881C8
:102950009981480F591F518340838A819B819383BA
:1029600082832115310509F0B0CFF0935103E09334
:1029700050039ECFFD01DC01C0CF13821282D7CF5E
:102980004F925F926F927F928F929F92AF92BF927F
:10299000CF92DF92EF92FF920F931F93CF93DF932B
:1029A0008C01009791F4CB01DF91CF911F910F9192
:1029B000FF90EF90DF90CF90BF90AF909F908F905F
:1029C0007F906F905F904F90B6CEFC01E60FF71F9F
:1029D0009C0122503109E217F30708F4AAC0D9017B
:1029E000CD91DC911197C617D70718F1C530D105E5
:1029F00070F0CE0104978617970748F0C61BD70BD7
:102A00002297C193D1936D937C93CF0130DFC8019E
:102A1000DF91CF911F910F91FF90EF90DF90CF90BA
:102A2000BF90AF909F908F907F906F905F904F90EE
:102A300008955B01AC1ABD0A4C018C0E9D1EA0913D
:102A40005003B0915103512C412CF12CE12C1097E3
:102A500031F580914E0390914F038815990509F047
:102A60005CC04616570608F058C08091100290913D
:102A70001102009741F48DB79EB740911402509116
:102A80001502841B950BE817F90708F052C0F09364
:102A90004F03E0934E03F90171836083B8CF8D91AA
:102AA0009C91119712966C90129713967C901397A5
:102AB000A815B90559F56C0142E0C40ED11CCA1421
:102AC000DB0420F1AC014A195B09DA011296159773
:102AD00080F06282738251834083D9016D937C932D
:102AE000E114F10471F0D7011396FC93EE93129761
:102AF0008ECF22968C0F9D1FF90191838083F30165
:102B0000EFCFF0935103E093500381CF481659065D
:102B100008F42C017D01D3019ACFCB010CDE7C019E
:102B2000009739F0AE01B8010FD0C801A0DE8701CF
:102B30006ECF10E000E06BCF9111089581568A515D
:102B400008F4805285580895FB01DC0102C0019011
:102B50000D9241505040D8F70895FB01DC018D9152
:102B6000019080190110D9F3990B0895FB01DC0144
:0E2B700001900D920020E1F70895F894FFCF38
:102B7E00EB04EB04EB04EB04EB04EB04EB04EB04CF
:102B8E0000005203800000000000D60139016E01E2
:102B9E0022029F017D019101000000000507A80699
:102BAE00EC040D0A00203000554944207461673A48
:102BBE0020004D6573736167653A200031323543ED
:102BCE0035443432004132464141333432003C41C7
:102BDE00726475696E6F2069732072656164793EE7
:102BEE0000416C746974756465206D617070656404
:0C2BFE003A003C52657475726E3E000097
:00000001FF
