:1000000002C100000C945D0D0C94320D0C94070D90
:100010000C94DC0C0C94B10C0C94860C0C945B0CC2
:100020000C94300C21C100001FC100001DC1000054
:100030001BC1000019C1000017C1000015C100005C
:1000400013C1000011C100000FC100000DC100006C
:100050000BC1000009C1000007C100000C94E60BB1
:1000600003C100000C94B00B0C94860BFDC0000083
:10007000FBC00000F9C00000F7C00000F5C00000A0
:10008000F3C00000F1C00000EFC00000EDC00000B0
:10009000EBC00000E9C00000E7C00000E5C00000C0
:1000A000E3C00000E1C00000DFC00000DDC00000D0
:1000B000DBC00000D9C00000D7C00000D5C00000E0
:1000C000D3C00000D1C00000CFC00000CDC00000F0
:1000D000CBC00000C9C00000C7C00000C5C0000000
:1000E000C3C0000000002200250028002B002E00C5
:1000F0003100340002010000050108010B0100007D
:1001000020002300260029002C002F0032000001CF
:10011000000003010601090100000A0B02090C0D91
:100120000E080703040100000000000000000000AA
:1001300000000000000000000000000000000000BF
:10014000000000001211100000000000000000007C
:10015000000000000000000000000000000000009F
:100160002100240027002A002D0030003300010167
:100170000000040107010A010102102020080810F4
:100180002040102040800201020108040201010207
:1001900004081020408080402010080402018004E0
:1001A000020180402010080402010804020101023B
:1001B000040810204080010204081020408005053A
:1001C0000505070508080808020202020A0A0808CD
:1001D00004040404010101010101010103030303FB
:1001E00003030303040707070C0C0C0C0C0C0C0C8A
:1001F0000202020206060606060606060B0B0B0B9B
:100200000B0B0B0B880D11241FBECFEFD1E2DEBF0D
:10021000CDBF00E00CBF12E0A0E0B2E0EEE7FBE2F1
:1002200000E00BBF02C007900D92AC38B107D9F7C0
:1002300023E0ACE8B2E001C01D92A235B207E1F7BD
:1002400011E0C3E0D1E000E006C021970109802F52
:10025000FE010E949313C230D10780E00807A9F77E
:100260000E94BF0D0C94BD15CBCE8CBD9DBD0895D5
:100270000895AF92BF92CF92DF92EF92FF920F93C9
:100280001F93CF93DF936C017B018B01040F151F2C
:10029000EB015E01AE18BF08C017D10759F0699194
:1002A000D601ED91FC910190F081E02DC6011995E8
:1002B000892B79F7C501DF91CF911F910F91FF90A5
:1002C000EF90DF90CF90BF90AF900895FC014481F4
:1002D00055816081718181EA92E0CBCFFC01538D21
:1002E000448D252F30E0842F90E0821B930B541710
:1002F00010F0CF96089501970895FC01918D828D9D
:10030000981761F0A28DAE0FBF2FB11D5D968C9135
:10031000928D9F5F9F73928F90E008958FEF9FEF74
:100320000895FC01918D828D981731F0828DE80F30
:10033000F11D858D90E008958FEF9FEF0895FC01EA
:10034000918D228D892F90E0805C9F4F821B9109B7
:100350008F739927089581EA92E0F1DF21E0892BDC
:1003600009F420E0822F0895FC01A48DA80FB92F75
:10037000B11DA35ABF4F2C91848D90E001968F73CD
:100380009927848FA689B7892C93A089B1898C91EC
:10039000837080648C93938D848D981306C002883B
:1003A000F389E02D80818F7D80830895EF92FF9205
:1003B0000F931F93CF93DF93EC0181E0888F9B8D88
:1003C0008C8D98131AC0E889F989808185FF15C042
:1003D0009FB7F894EE89FF896083E889F989808165
:1003E0008370806480839FBF81E090E0DF91CF9134
:1003F0001F910F91FF90EF900895F62E0B8D10E056
:100400000F5F1F4F0F731127E02E8C8D8E110BC0C5
:100410000FB607FCFACFE889F989808185FFF5CF0F
:10042000CE01A2DFF2CFEB8DEC0FFD2FF11DE35AD1
:10043000FF4FF0829FB7F8940B8FEA89FB89808188
:100440008062D0CFCF93DF93EC01888D8823B1F009
:10045000AA89BB89E889F9898C9185FD03C08081CF
:1004600086FD0CC00FB607FCF7CF8C9185FFF2CF4D
:10047000808185FFEDCFCE0177DFEACFDF91CF918D
:10048000089580E090E0892B21F065DF81110E94C2
:10049000000080E090E0892B49F080E090E0892B1B
:1004A00029F00E94000081110E94000080E090E08D
:1004B000892B49F080E090E0892B29F00E94000010
:1004C00081110E94000080E090E0892B49F080E0DB
:1004D00090E0892B29F00E94000081110C9400000B
:1004E00008958150823108F05AC0E82FF0E0882743
:1004F000E358FD4F8F4F0C9493139D02A1028F027E
:1005000095029902CF02A402AA02AE02B402B80276
:10051000BC02C202C602CF02CA02D002D40280913B
:1005200080008F77809380000895809180008F7D78
:10053000F9CF80918000877FF5CF84B58F7784BD18
:10054000089584B58F7DFBCF8091B0008F77809325
:10055000B00008958091B0008F7DF9CF8091900018
:100560008F77809390000895809190008F7DF9CFD0
:1005700080919000877FF5CF8091A0008F77809346
:10058000A00008958091A0008F7DF9CF8091A000F8
:10059000877FF5CF809120018F7780932001089588
:1005A000809120018F7DF9CF80912001877FF5CF49
:1005B000CF93DF93282F30E0F901E85EFE4F84915E
:1005C000F901E858FE4FD491F901E254FE4FC4916D
:1005D000CC2399F0811185DFEC2FF0E0EE0FFF1FA7
:1005E000E250FF4FA591B491EC91ED2381E090E0B2
:1005F00009F480E0DF91CF91089580E090E0FACF98
:10060000CF92DF92EF92FF92CF93DF9382E0D0DF21
:10061000EC0183E0CDDFC0909D02D0909E02E0907F
:100620009F02F090A00261E070E0C817D90711F4B2
:1006300070E060E0072E000C880B990B0E942312DB
:10064000A70196010E942B1360939D0270939E0256
:1006500080939F029093A002DF91CF91FF90EF9043
:10066000DF90CF900895CF92DF92EF92FF92CF93D9
:10067000DF9382E09DDFEC0183E09ADFC0909D0272
:10068000D0909E02E0909F02F090A00261E070E0A6
:10069000C817D90711F470E060E071956195710990
:1006A000072E000C880B990B0E942312A7019601BC
:1006B0000E942B1360939D0270939E0280939F0271
:1006C0009093A002DF91CF91FF90EF90DF90CF90B9
:1006D00008951F93CF93DF93282F30E0F901E85E50
:1006E000FE4F8491F901E858FE4FD491F901E2548C
:1006F000FE4FC491CC23A1F0162F8111F2DEEC2F16
:10070000F0E0EE0FFF1FEC51FF4FA591B4918FB7B2
:10071000F894EC91111108C0D095DE23DC938FBFC3
:10072000DF91CF911F910895DE2BF8CFCF93DF9308
:1007300090E0FC01E858FE4F249182549E4FFC014A
:1007400084918823D1F090E0880F991FFC01E25A30
:10075000FE4FA591B491FC01EC51FF4FC591D4918E
:1007600061110EC09FB7F8948C91E22FE0958E2313
:100770008C932881E223E8839FBFDF91CF91089576
:100780008FB7F894EC91E22BEC938FBFF6CF8633C2
:1007900008F0865320917B00982F9870277F922B2A
:1007A00090937B008770806480937C0080917A00B6
:1007B000806480937A0080917A0086FDFCCF8091DE
:1007C00078009091790008953FB7F8948091910254
:1007D00090919202A0919302B091940226B5A89BA9
:1007E00005C02F3F19F00196A11DB11D3FBFBA2FC3
:1007F000A92F982F8827BC01CD01620F711D811D83
:10080000911D42E0660F771F881F991F4A95D1F707
:1008100008958F929F92AF92BF92CF92DF92EF9204
:10082000FF924B015C01D0DF6B017C01CDDF6C19C5
:100830007D098E099F09683E734081059105B0F3DB
:1008400021E0821A9108A108B10888EEC80E83E061
:10085000D81EE11CF11C81149104A104B10431F7EC
:10086000FF90EF90DF90CF90BF90AF909F908F90D0
:1008700008952FB7F89460918D0270918E02809147
:100880008F02909190022FBF08950F931F93F1DF75
:100890006093A9027093AA028093AB029093AC027A
:1008A00081EA92E02ADD97FF1CC0E3DF0091A902F4
:1008B0001091AA022091AB023091AC02601B710B27
:1008C000820B930B0091A5021091A6022091A70222
:1008D0003091A802601771078207930708F38FEF22
:1008E0009FEF1F910F910895E82FF0E0DF01AA0F0D
:1008F000BB1FA050BE4F11967C936E93883008F0BA
:1009000069C08827E957FB4F8F4F0C949313BD04A0
:10091000C5048F049704A304B004D104DE048091BD
:1009200069008C7F482B40936900E89A0895809174
:100930006900837F440F551F440F551F482B409378
:100940006900E99A0895809169008F7C74E0440FF2
:10095000551F7A95E1F7482B40936900EA9A08956C
:10096000809169008F7366E0440F551F6A95E1F727
:10097000482B40936900EB9A089580916A008C7F20
:10098000482B40936A00EC9A089580916A00837F17
:10099000440F551F440F551F482B40936A00ED9A92
:1009A000089580916A008F7C24E0440F551F2A959A
:1009B000E1F7482B40936A00EE9A089580916A000F
:1009C0008F7396E0440F551F9A95E1F7482B40939B
:1009D0006A00EF9A08950895BC016E5F7F4FDC01B5
:1009E000ED91FC910190F081E02D40E0199591E0AE
:1009F000811190E0892F089508958EBD00000DB4F7
:100A000007FEFDCF8EB50895DF92EF92FF920F9310
:100A10001F93CF93DF937C01062FD42E152F83E5F0
:100A200090E023DC60E0F701868553DE82E1E5DFBC
:100A3000CD2DD12F0C0F1D2F111DC017D10719F06F
:100A40008991DBDFFACF61E0F7018685DF91CF91F5
:100A50001F910F91FF90EF90DF903BCE1F93CF93AC
:100A6000DF93EC01162F83E590E0FFDB60E08E85DD
:100A700030DE812F8068C1DF80E0BFDF182F61E0AA
:100A80008E8527DE812FDF91CF911F9108950F93DF
:100A90001F93CF93DF93EC01062F142F83E590E093
:100AA000E4DB60E08E8515DE802FA7DF812FA5DFD8
:100AB00061E08E85DF91CF911F910F910ACECF9289
:100AC000DF92EF92FF920F931F93CF93DF93EC018E
:100AD0006B01142F790140E062E0D9DF44E06AE065
:100AE000CE01D5DF40E864E1CE01D1DFA601612F60
:100AF000CE018ADF43E062E0CE01C9DF08E813E1FE
:100B00006AE0CE01ABDF82FF18C040E062E0CE01B8
:100B1000BEDF64E4CE01A2DFF701808362E4CE0190
:100B20009DDFF701818380E0DF91CF911F910F91CD
:100B3000FF90EF90DF90CF9008950150110901F7D9
:100B400083E0F2CF3F924F925F926F927F928F92AB
:100B50009F92AF92BF92CF92DF92EF92FF920F934C
:100B60001F93CF93DF931F921F92CDB7DEB74C0137
:100B70002B01D42E390180E0E114F10411F0F701CA
:100B80008081BC2CB29490EFB922B80E40E062E0B4
:100B9000C4017DDF4FE768E0C40179DF40E864E12C
:100BA000C40175DFA2016D2DC4012EDF4B2D6AE15A
:100BB000C4016DDF4CE062E0C40169DF6AE1C40199
:100BC0004DDF482F40686AE1C40161DF20ED422E0D
:100BD00027E0522E68E0C40141DF982F907309F09E
:100BE000ACC080FD04C0F1E04F1A510899F783E0D2
:100BF0008AC06114710409F464C00115110509F477
:100C000060C064E1C4012ADFB82EF80180818B1531
:100C100008F48DC0B082BB20A9F183E590E025DB0C
:100C200060E0F401868555DDBA9482E9E6DECC20E9
:100C3000A9F08FEF90E09C0102C0220F331FCA94ED
:100C4000E2F7690182E9D9DE9C2D9095F3012081BC
:100C500092238C21982B9083CC24C39423014C0C99
:100C6000511CCB1438F482E9C8DEF20181932F01C4
:100C7000C394F7CF80E0C1DEF201808361E0F4012C
:100C8000868527DD68E1C401E9DE8770E114F1049F
:100C900011F0F701808333FC4CC06114710409F436
:100CA0004AC00115110509F446C0AA2009F443C041
:100CB000F8014081413039F4843009F047C08FEFAA
:100CC00022C080E0E8CF423008F440C081113EC02D
:100CD00042509E012F5F3F4FB301C401F0DE8111EE
:100CE00012C0F8019081690E711CF30132972081C6
:100CF000998129132BC0F1E06F1A7108F30120814B
:100D00009A81291323C00F900F90DF91CF911F91EB
:100D10000F91FF90EF90DF90CF90BF90AF909F909A
:100D20008F907F906F905F904F903F90089584E0F8
:100D3000EACF82E0E8CF80E0E6CF6CE0C4018EDE4F
:100D4000382E837109F455CF81E0DDCF87E0DBCF0A
:100D50008F929F92AF92CF92EF92FF920F931F9339
:100D6000CF93DF9300D01F921F92CDB7DEB74C0117
:100D700082E08D8340E064E2C40189DE40E066E207
:100D8000C40185DE46E268E4C40181DE86E28B832D
:100D90008D818230C0F16CE1C40160DE482F4F7755
:100DA0006CE1C40174DE87E08C83A12CC12CCE01E0
:100DB00004967C018E010B5F1F4F9E012F5F3F4FFA
:100DC00041E0BE016D5F7F4FC401BCDE982F8111F1
:100DD00017C08D818230B9F48C81811114C081E0FB
:100DE0000F900F900F900F900F90DF91CF911F9168
:100DF0000F91FF90EF90CF90AF909F908F900895BC
:100E000081E0923069F380E0EBCF2F923F924F92D6
:100E10005F926F927F928F929F92AF92BF92CF928A
:100E2000DF92EF92FF920F931F93CF93DF93CDB793
:100E3000DEB72D970FB6F894DEBF0FBECDBF16E01C
:100E4000413508F043C1342E3B014C016CE106DE14
:100E5000482F4F776CE1C4011ADE83E98983332080
:100E600029F081E0F3019081953008F480E022249C
:100E70002394B12C9B2D990F990F990FD32CD91A2C
:100E8000D7FCD12C32E0882319F098E89B8333E01B
:100E900021E09D2D977009F420E09D2D9595959565
:100EA0009595290FC9F094E0811193E0291708F472
:100EB000922FEB2DF0E03196E60DF71D232F419197
:100EC000A1E0B0E0AC0FBD1FA20FB11D4C932F5F8E
:100ED000422F431B491798F3882311F0F8E0DF0EE7
:100EE0008FE18D150CF07EC090E79A838B819C81F9
:100EF00089279D8189279E8189278F839E01285F6D
:100F00003F4F47E0BE016F5F7F4FC401D8DD182F10
:100F10008111DCC01A86E3E0EB87DC86CE01079600
:100F20002C0199E09D87CA844C2D4295407F4C0D41
:100F30006AE1C401ACDDA12CCE010A967C018E01D0
:100F4000055F1F4F92014D85BE016F5F7F4FC4014A
:100F5000F9DD182F823009F064C06CE1C4017EDD38
:100F600085FDB4C08F7109F480E2282F30E04D2D4B
:100F7000DD0C550B421753070CF09CC0D82EE82F00
:100F8000E595E595E595EF5F982F977081E009F479
:100F900080E0E80F81E090E08C0F9D1F8E0F911D87
:100FA000FC01215031092770332781E090E002C015
:100FB000880F991F2A95E2F79C018081822B8083FC
:100FC0008FCF85E98983332031F081E0F30190816F
:100FD000983008F04FCF80E04DCF87E9898326E035
:100FE000B22EF9CF9D2D97709A878D2D8595859579
:100FF00085958E5F282F2295207F290F2A8321E057
:10100000911101C020E0280F2D8744244394512CD6
:101010004C0E5D1E480E511CE9E0E81BEB87DC8698
:1010200082CF811153C080E2D82E9C8590320CF47F
:101030005BCF8B81883809F03FC083E093E0EB2DD4
:10104000F0E03196E60DF71D980FA1E0B0E0AC0F8F
:10105000BD1FA80FB11D2C9121938F5F8913F5CF70
:10106000BB84E3E0BE124CC08A85811149C09E0159
:101070002D5F3F4F41E0B201C40121DD182F8111E6
:1010800025C09B81F201818198133CC09C818281A3
:10109000981338C0808182FF12C02394F2E02F168B
:1010A00009F48FCF83E0281609F497CF91E0291631
:1010B00009F4D3CE15E00AC082E094E0C0CFF3017A
:1010C0008387822D880F820D8F5F8083812F2D96DD
:1010D0000FB6F894DEBF0FBECDBFDF91CF911F9149
:1010E0000F91FF90EF90DF90CF90BF90AF909F90C7
:1010F0008F907F906F905F904F903F902F900895CA
:1011000011E0E4CF17E0E2CF60E084E0E2DA60E0F3
:1011100085E0DFDA60E086E0DCDA60E087E0D9DAFB
:1011200060E088E0D6DA60E089E0D3DA60E08AE067
:10113000D0DA60E08BE0CDCA60E084E0CADA61E03A
:1011400085E0C7DA61E086E0C4DA61E087E0C1CA21
:1011500061E084E0BEDA60E085E0BBDA61E086E071
:10116000B8DA61E087E0B5CAFC0101900020E9F738
:101170003197AF01481B590BBC0181EA92E079C855
:101180008F929F92AF92BF920F931F93CF93DF9353
:10119000CDB7DEB7A1970FB6F894DEBF0FBECDBFB7
:1011A00019A2423008F44AE08E010F5D1F4F842ED1
:1011B000912CB12CA12CA50194010E94F912E62FCB
:1011C000B901CA01EA30ECF4E05DD801EE938D017B
:1011D000232B242B252B79F790E080E0109711F03A
:1011E000CD01C2DFA1960FB6F894DEBF0FBECDBF12
:1011F000DF91CF911F910F91BF90AF909F908F90F3
:101200000895E95CE2CFCF93DF93AEDFEC0182E398
:1012100092E0AADF8C0F9D1FDF91CF910895CF93AD
:10122000DF9354D8EC0182E392E09EDF8C0F9D1F88
:10123000DF91CF910895CF92DF92EF92FF92CF93FB
:10124000DF936C01990FEE08FF08F7FE1CC06DE2FA
:1012500081EA92E0ABD8EC0166277727CB016C19C5
:101260007D098E099F094AE08BDFC80FD91F82E3F1
:1012700092E07ADF8C0F9D1FDF91CF91FF90EF906E
:10128000DF90CF9008954AE0C701B60179DFEC0105
:10129000EECFCF93DF93EC0188819981009711F015
:1012A0000E943714198218821D821C821B821A82A6
:1012B000DF91CF910895FC0180819181009711F019
:1012C0000C94371408950F931F93CF93DF93EC0181
:1012D00088819981009759F02A813B812617370729
:1012E00030F081E0DF91CF911F910F9108958B0134
:1012F0006F5F7F4F0E94C014009759F099838883D5
:101300001B830A832C813D81232B59F7FC0110821A
:10131000E8CF80E0E7CFEF92FF920F931F93CF9338
:10132000DF936115710541F480E0DF91CF911F914A
:101330000F91FF90EF90089541155105A9F07B01A1
:10134000EC010C811D81040F151FB801BCDF88233F
:1013500059F3288139818C819D81B701820F931FB8
:101360000E94B6151D830C8381E0DFCF0F931F937E
:10137000CF93DF931F921F92CDB7DEB78C016983A5
:101380001A8241E050E0BE016F5F7F4FC4DF8111E0
:1013900002C0C8017EDFC8010F900F90DF91CF918E
:1013A0001F910F910895EF92FF920F931F93CF9388
:1013B000DF93EC017B018A01BA0185DF81110AC04C
:1013C000CE0167DFCE01DF91CF911F910F91FF908A
:1013D000EF9008951D830C83B701888199810E9445
:1013E000B615F0CFCF93DF93EC01FB01861797077B
:1013F00041F0608171816115710539F04481558139
:10140000D2DFCE01DF91CF91089543DFFACFFC0107
:101410001182108213821282158214826115710565
:1014200049F0FB0101900020E9F73197AF01461B1D
:10143000570BB9CF0895DF92EF92FF920F931F934E
:10144000CF93DF93CDB7DEB765970FB6F894DEBFC5
:101450000FBECDBF05E010E061E08EE13AD960E05B
:101460008FE137D962E370E080E090E0D2D960E0AC
:101470008EE12FD961E08FE12CD962E370E080E04A
:1014800090E0C7D90150110939F78EE393E060DC91
:10149000882309F42AC18EE393E09EDA882309F4B5
:1014A00024C188E392E060DE64E372E0CE014096FE
:1014B000AEDFD12CCE0101967C0180914003D8167D
:1014C00008F04AC00D2D10E0025C1C4FF80183812A
:1014D000803108F418C184E392E046DEF8016381AC
:1014E00070E090E080E040E14BDEF801838165E34D
:1014F00072E0803110F064E372E0C70188DF4D8153
:101500005E8169817A81CE01409605DFC701D3DE15
:10151000F80183811B861A861D861C861F861E86FF
:1015200040E1B70190E064D7F70101900020E9F7AE
:101530003197AF014E195F09B701CE010A9633DF2B
:101540004E855F856A857B85CE014096E4DECE01BF
:101550000A96B1DED394B1CF82E392E005DE82E455
:1015600092E051DE088919890115110571F0F80121
:1015700081918F01882349F0082E000C990B0E945D
:101580009C15F80131978083F2CFCE01409647DE5B
:101590008C899D89892B09F447C0E888F9886CE417
:1015A00072E0C7010E94AD1511E0892B09F010E02F
:1015B00065E572E0C7010E94AD1521E0892B09F0B5
:1015C00020E0212B09F48EC003E010E061E08EE101
:1015D00080D862E370E080E090E01BD960E08EE1AB
:1015E00078D862E370E080E090E013D901501109EF
:1015F00069F780E20E94D80201E0892B09F400E03B
:1016000081E20E94D80211E0892B09F410E0002346
:1016100069F0012F11110AC08FDD61E08EE159D808
:1016200060E08FE156D8E5CF10E0CACF6DDD011143
:1016300018C01123B1F08CDD60E08EE14AD861E082
:101640008FE147D880E20E94D80201E0892B09F49B
:1016500000E081E20E94D80211E0892B41F710E0FE
:10166000E6CF60E08EE135D860E08FE132D84CDD26
:1016700080E20E94D802019709F0BBCF81E20E946C
:10168000D802019709F0B5CF04E110E061E08EE1E6
:1016900020D860E08FE11DD862E370E080E090E048
:1016A000B8D860E08EE115D861E08FE112D862E32E
:1016B00070E080E090E0ADD860E08EE10AD860E0B4
:1016C0008FE107D80150110909F768EE73E080E057
:1016D00090E09FD810929D0210929E0210929F025D
:1016E0001092A002CE014096E6DD65960FB6F89402
:1016F000DEBF0FBECDBFDF91CF911F910F91FF9045
:10170000EF90DF90089585E392E0E7CE1F920F926D
:101710000FB60F9211240BB60F922F933F934F9356
:101720005F936F937F938F939F93AF93BF93EF9349
:10173000FF9381EA92E00E94B401FF91EF91BF9183
:10174000AF919F918F917F916F915F914F913F9159
:101750002F910F900BBE0F900FBE0F901F901895FA
:101760001F920F920FB60F9211240BB60F922F9368
:101770008F939F93EF93FF93E091B102F091B202A8
:101780008081E091B702F091B80282FD1DC0908186
:101790008091BA028F5F8F732091BB02821741F054
:1017A000E091BA02F0E0EF55FD4F958F8093BA02B9
:1017B000FF91EF919F918F912F910F900BBE0F9002
:1017C0000FBE0F901F9018958081F2CF1F920F923D
:1017D0000FB60F9211242F933F938F939F93AF9344
:1017E000BF9380918D0290918E02A0918F02B09153
:1017F000900230918C0223E0230F2D3758F501968B
:10180000A11DB11D20938C0280938D0290938E02B6
:10181000A0938F02B09390028091910290919202D6
:10182000A0919302B09194020196A11DB11D8093E5
:10183000910290939202A0939302B0939402BF916D
:10184000AF919F918F913F912F910F900FBE0F906D
:101850001F90189526E8230F0296A11DB11DD2CF27
:101860001F920F920FB60F9211240BB60F922F9367
:101870003F934F935F936F937F938F939F93AF9318
:10188000BF93EF93FF93E0910E02F0910F02199531
:10189000FF91EF91BF91AF919F918F917F916F9148
:1018A0005F914F913F912F910F900BBE0F900FBE04
:1018B0000F901F9018951F920F920FB60F92112440
:1018C0000BB60F922F933F934F935F936F937F933A
:1018D0008F939F93AF93BF93EF93FF93E0910C028D
:1018E000F0910D021995FF91EF91BF91AF919F91EA
:1018F0008F917F916F915F914F913F912F910F90B9
:101900000BBE0F900FBE0F901F9018951F920F9255
:101910000FB60F9211240BB60F922F933F934F9354
:101920005F936F937F938F939F93AF93BF93EF9347
:10193000FF93E0910202F09103021995FF91EF915C
:10194000BF91AF919F918F917F916F915F914F91D7
:101950003F912F910F900BBE0F900FBE0F901F90D5
:1019600018951F920F920FB60F9211240BB60F927B
:101970002F933F934F935F936F937F938F939F9397
:10198000AF93BF93EF93FF93E0910002F0910102B8
:101990001995FF91EF91BF91AF919F918F917F9199
:1019A0006F915F914F913F912F910F900BBE0F90D0
:1019B0000FBE0F901F9018951F920F920FB60F92A7
:1019C00011240BB60F922F933F934F935F936F9316
:1019D0007F938F939F93AF93BF93EF93FF93E09188
:1019E0000A02F0910B021995FF91EF91BF91AF910F
:1019F0009F918F917F916F915F914F913F912F9127
:101A00000F900BBE0F900FBE0F901F9018951F9256
:101A10000F920FB60F9211240BB60F922F933F9394
:101A20004F935F936F937F938F939F93AF93BF93E6
:101A3000EF93FF93E0910802F09109021995FF914D
:101A4000EF91BF91AF919F918F917F916F915F9136
:101A50004F913F912F910F900BBE0F900FBE0F90A3
:101A60001F9018951F920F920FB60F9211240BB66C
:101A70000F922F933F934F935F936F937F938F9327
:101A80009F93AF93BF93EF93FF93E0910602F09182
:101A900007021995FF91EF91BF91AF919F918F919F
:101AA0007F916F915F914F913F912F910F900BBE5E
:101AB0000F900FBE0F901F9018951F920F920FB6A8
:101AC0000F9211240BB60F922F933F934F935F9376
:101AD0006F937F938F939F93AF93BF93EF93FF93F6
:101AE000E0910402F09105021995FF91EF91BF91E9
:101AF000AF919F918F917F916F915F914F913F91A6
:101B00002F910F900BBE0F900FBE0F901F90189546
:101B1000E1EAF2E01382128288EE93E0A0E0B0E006
:101B200084839583A683B7838AE192E0918380833F
:101B300085EC90E09587848784EC90E09787868792
:101B400080EC90E0918B808B81EC90E0938B828B8A
:101B500082EC90E0958B848B86EC90E0978B868B63
:101B6000118E128E138E148EEEE3F3E08CE292E06F
:101B70009183808385E3868781E387870895CF9368
:101B8000DF93CDB7DEB76E970FB6F894DEBF0FBE0A
:101B9000CDBF789484B5826084BD84B5816084BDF6
:101BA00085B5826085BD85B5816085BD80916E00FB
:101BB000816080936E00109281008091810082602C
:101BC0008093810080918100816080938100809169
:101BD00080008160809380008091B1008460809358
:101BE000B1008091B00081608093B000809191003D
:101BF0008260809391008091910081608093910038
:101C0000809190008160809390008091A10082601B
:101C10008093A1008091A10081608093A1008091B8
:101C2000A00081608093A000809121018260809358
:101C30002101809121018160809321018091200107
:101C400081608093200180917A00846080937A0083
:101C500080917A00826080937A0080917A0081601E
:101C600080937A0080917A00806880937A00109245
:101C7000C10060E082E00E94960343E050E060E033
:101C800073E080E00E94740460E083E00E949603A9
:101C900043E050E063E373E081E00E94740461E09C
:101CA00084E00E94960361E085E00E94960361E073
:101CB00086E00E94960361E087E00E94960361E05F
:101CC00088E00E94960361E089E00E94960361E04B
:101CD0008AE00E94960361E08BE00E94960361E037
:101CE0008EE10E94960361E08FE10E94960360E01E
:101CF00080E20E94960360E081E20E94960360E029
:101D000082E10E94960341E050E06BE17AE085E0D9
:101D10000E94740460E083E10E94960361E085E321
:101D20000E9496031FB7F89480919502811127C0F5
:101D3000E3EFF1E08491EDEAF1E09491E82FF0E037
:101D4000EE0FFF1FE25AFE4FA591B491EC91E923EB
:101D500021F461E085E30E94690361E085E30E946C
:101D600096038CB580618CBD8CB580648CBD61E0C0
:101D700084E30E94960361E083E30E9496038091CE
:101D800095028F5F809395021FBF61E080914C03A5
:101D90000E94960361E080914C030E946903809148
:101DA0004D038F3F09F4B6C060E00E949603809116
:101DB0004D030E94D802892B09F0ACC061E08091EC
:101DC0004D030E94960360E080914D030E946903D9
:101DD00083E090E00197F1F761E080914D030E946C
:101DE000690362E370E080E090E00E94090440E053
:101DF00064E28EE393E00E94470540E066E28EE3F2
:101E000093E00E94470546E268E48EE393E00E9477
:101E1000470540E864E58EE393E00E94470549EA00
:101E200066E58EE393E00E94470543E068E58EE3B4
:101E300093E00E94470548EE6AE58EE393E00E9436
:101E4000470540E46AE28EE393E00E9447054DE3D4
:101E500062E28EE393E00E94470568E28EE393E03E
:101E60000E942E05982F9370933039F0482F4360CD
:101E700068E28EE393E00E944705E091B102F091A1
:101E8000B20282E08083E091AD02F091AE02108256
:101E9000E091AF02F091B0028FEC80831092B90212
:101EA000E091B502F091B60286E08083E091B30242
:101EB000F091B402808180618083E091B302F0915F
:101EC000B402808188608083E091B302F091B40213
:101ED000808180688083E091B302F091B4028081B8
:101EE0008F7D808389E2382E0AE510E061E085E38A
:101EF0000E94690381EA92E00E949F01892B09F503
:101F00008EE592E080D968EE73E080E090E00E9478
:101F10000904F0CF4FE062E08EE393E00E944705B2
:101F200013E062E370E080E090E00E94090462E068
:101F30008EE393E00E942E0584FF59CF115089F75C
:101F400056CF60E085E30E94690364E372E0CE014E
:101F500049965DDA64E372E0CE01019658DA0E9498
:101F6000450497FD0BC08F83188641E050E0BE0109
:101F7000695F7F4FCE010196CED9F1CF898D9A8DC1
:101F8000009709F4EFC069817A816115710509F440
:101F9000E8C04B8D5C8D2D813E814217530708F4BC
:101FA000E0C0E4D58D819E819E8F8D8F1E821D8223
:101FB000CE01019680D9CE01499631D964E372E011
:101FC000CE01439624DA64E372E0CE010D961FDA67
:101FD00064E372E0CE0107961ADAF12CE12C8D8DC4
:101FE0009E8DE816F90628F4E98DFA8D309709F0F0
:101FF000CAC010929602E6E9F2E0D0801A821982F5
:102000001C821B821E821D82BE016D5E7F4FCE012F
:102010000196E8D96D2DCE010196A8D9BC01CE015B
:102020004396E0D9CE01019646D92FEFE21AF20A83
:1020300083E0E816F10499F68D8D9E8DE816F90679
:1020400028F4E98DFA8D309709F0A0C0109296021D
:10205000E6E9F2E0D0801A8219821C821B821E827D
:102060001D82BE01635F7F4FCE010196BBD96D2DEE
:10207000CE0101967BD9BC01CE010D96B3D9CE011C
:10208000019619D92FEFE21AF20A86E0E816F10458
:1020900099F68D8D9E8DE816F90628F4E98DFA8D56
:1020A000309709F076C010929602E6E9F2E0D0800F
:1020B0001A8219821C821B821E821D82BE01695FE8
:1020C0007F4FCE0101968ED96D2DCE0101964ED94E
:1020D000BC01CE01079686D9CE010196ECD82FEF30
:1020E000E21AF20A89E0E816F10499F6CE01439665
:1020F00096D8CE010D9693D8CE01079690D8CE01F2
:1021000049968DD88B899C89009709F445C035D1B3
:102110007B018D859E85412C512C3201009711F059
:102120002CD12B018F819885812C912C5401009703
:1021300011F023D14B012EE6E216F10489F56091EE
:102140009D0270919E0280919F029091A00220E0DA
:1021500030E0A901E4D218160CF0DCC00E94A808F7
:10216000EECF85D389819A819A8F898F8B819C81CB
:102170009C8F8B8F8D819E819E8F8D8F1A8219826D
:102180001C821B8213CFEE0DFF1D37CFEE0DFF1DFE
:1021900061CFEE0DFF1D8BCF60E070E0CB01B8CFBB
:1021A00088E7E816F10409F0B7C0349C6001359C5B
:1021B000D00C11240D2C000CEE08FF0840909D025D
:1021C00050909E0260909F027090A002C701B601DD
:1021D0003AD1A3019201A3D218161CF40E949C08C4
:1021E000EDCF0E94840868EE73E080E090E00E94EA
:1021F00009047801E818F908C7011DD886E30E9490
:10220000C70390939C0280939B029701FF0C440BA1
:10221000550B2A50310941095109A8E9B3E0DFD132
:102220002CE330E040E050E0BED149015A018CE39C
:10223000880E911CA11CB11C740181E792E00E94E0
:102240000309C4010E941B0968EE73E080E090E07E
:102250000E9409040E9439044B015C01809297029C
:1022600090929802A0929902B0929A0280919B0259
:1022700090919C028E159F0514F561E088E00E9404
:10228000690360E089E00E94690361E08AE00E94DE
:10229000690361E08BE00E94690386E30E94C70343
:1022A00090939C0280939B020E94390468197909DB
:1022B0008A099B096131774281059105B8F20E9434
:1022C000840880919B0290919C02E816F90614F50F
:1022D00060E088E00E94690361E089E00E94690390
:1022E00061E08AE00E94690361E08BE00E9469037B
:1022F00086E30E94C70390939C0280939B020E94F6
:102300003904681979098A099B0961317742810585
:102310009105B8F20E94840868EE73E080E090E0D6
:102320000E940904CE0143960E9466018AE492E06D
:102330000E94B408CE010D960E9466018AE492E0E4
:102340000E94B408CE0107960E940F0982E892E02D
:102350000E940309CE0107960E945B09CE010D96EB
:102360000E945B09CE0143960E945B09CE0149960B
:102370000E945B090E944102B9CD1F93FC0199277D
:102380008827BC01E89411911032E9F3193010F05C
:102390001E30C8F31B3249F01D3241F4689405C069
:1023A00012D0610F711D811D911D119110531A30B2
:1023B000B8F33EF490958095709561957F4F8F4F5F
:1023C0009F4F1F910895592F482F372F262F660FA3
:1023D000771F881F991F660F771F881F991F620F2D
:1023E000731F841F951F660F771F881F991F0895FD
:1023F000BB27FB015527AA27880F991FAA1FA417DF
:1024000010F0A41B83955051B9F7A05DAA3308F0D2
:10241000A95DA193009779F7B111B1931192CB0106
:1024200000C0DC01FC01672F71917723E1F732973F
:1024300004C07C916D9370836291AE17BF07C8F39F
:102440000895E89409C097FB3EF4909580957095A7
:1024500061957F4F8F4F9F4F9923A9F0F92F96E9F0
:10246000BB279395F695879577956795B795F11165
:10247000F8CFFAF4BB0F11F460FF1BC06F5F7F4F02
:102480008F4F9F4F16C0882311F096E911C0772314
:1024900021F09EE8872F762F05C0662371F096E81D
:1024A000862F70E060E02AF09A95660F771F881FEC
:1024B000DAF7880F9695879597F90895990F000890
:1024C000550FAA0BE0E8FEEF16161706E807F90706
:1024D000C0F012161306E407F50798F0621B730BA1
:1024E000840B950B39F40A2661F0232B242B252B22
:1024F00021F408950A2609F4A140A6958FEF811DC5
:10250000811D089597F99F6780E870E060E0089565
:102510009FEF80EC089500240A94161617061806FB
:102520000906089500240A941216130614060506D7
:102530000895092E0394000C11F4882352F0BB0F68
:1025400040F4BF2B11F460FF04C06F5F7F4F8F4FCB
:102550009F4F089557FD9058440F551F59F05F3F06
:1025600071F04795880F97FB991F61F09F3F79F0B5
:1025700087950895121613061406551FF2CF469537
:10258000F1DF08C0161617061806991FF1CF8695B9
:102590007105610508940895E894BB27662777279D
:1025A000CB0197F90895052E97FB16F400940FD0F0
:1025B00057FD05D01ED007FC02D046F408C0509548
:1025C0004095309521953F4F4F4F5F4F089590951F
:1025D0008095709561957F4F8F4F9F4F08952BD0B9
:1025E000A59F900DB49F900DA49F800D911D112467
:1025F0000895A1E21A2EAA1BBB1BFD010DC0AA1F44
:10260000BB1FEE1FFF1FA217B307E407F50720F05B
:10261000A21BB30BE40BF50B661F771F881F991FD6
:102620001A9469F760957095809590959B01AC011F
:10263000BD01CF010895A29FB001B39FC001A39F28
:10264000700D811D1124911DB29F700D811D1124EB
:10265000911D08955058BB27AA270ED06ACF5BDF83
:1026600030F060DF20F031F49F3F11F41EF450CFC2
:102670000EF4E095E7FB46CFE92F6CDF80F3BA1745
:10268000620773078407950718F071F49EF584CFED
:102690000EF4E0950B2EBA2FA02D0B01B90190017D
:1026A0000C01CA01A0011124FF27591B99F0593FC1
:1026B00050F4503E68F11A16F040A22F232F342F09
:1026C0004427585FF3CF469537952795A795F04057
:1026D0005395C9F77EF41F16BA0B620B730B840B6C
:1026E000BAF09150A1F0FF0FBB1F661F771F881F24
:1026F000C2F70EC0BA0F621F731F841F48F487957C
:1027000077956795B795F7959E3F08F0B3CF93956A
:10271000880F08F09927EE0F979587950895CEDEDC
:1027200008F48FEF0895EE0FFF1F881F8BBF0790EF
:10273000F691E02D19940F931F93CF93DF9382307E
:10274000910510F482E090E0E0915003F091510384
:1027500030E020E0B0E0A0E0309799F42115310599
:1027600009F44AC0281B390B24303105D8F58A8179
:102770009B816115710589F1FB0193838283FE01C1
:1027800011C0408151810281138148175907E0F03F
:102790004817590799F4109761F012960C93129705
:1027A00013961C933296CF01DF91CF911F910F9119
:1027B00008950093500310935103F4CF2115310570
:1027C00051F04217530738F0A901DB019A01BD010E
:1027D000DF01F801C1CFEF01F9CF9093510380934E
:1027E0005003CDCFFE01E20FF31F8193919322504E
:1027F000310939832883D7CF20914E0330914F037D
:10280000232B41F4209112023091130230934F0395
:1028100020934E03209110023091110221153105B1
:1028200041F42DB73EB74091140250911502241B7C
:10283000350BE0914E03F0914F03E217F307A0F43C
:102840002E1B3F0B2817390778F0AC014E5F5F4F06
:102850002417350748F04E0F5F1F50934F034093E6
:102860004E03819391939FCFF0E0E0E09CCFCF9314
:10287000DF930097E9F0FC01329713821282A09156
:102880005003B0915103ED0130E020E01097A1F426
:1028900020813181820F931F20914E0330914F038D
:1028A0002817390709F061C0F0934F03E0934E03F6
:1028B000DF91CF910895EA01CE17DF07E8F54A814D
:1028C0005B819E0141155105B1F7E901FB83EA8364
:1028D00049915991C40FD51FEC17FD0761F4808110
:1028E00091810296840F951FE901998388838281E3
:1028F00093819B838A83F0E0E0E012968D919C9116
:1029000013970097B9F52D913C911197CD0102963F
:10291000820F931F20914E0330914F0328173907E0
:1029200039F6309751F51092510310925003B0933D
:102930004F03A0934E03BCCFD383C2834081518108
:10294000840F951FC817D90761F44E5F5F4F8881C8
:102950009981480F591F518340838A819B819383BA
:1029600082832115310509F0B0CFF0935103E09334
:1029700050039ECFFD01DC01C0CF13821282D7CF5E
:102980004F925F926F927F928F929F92AF92BF927F
:10299000CF92DF92EF92FF920F931F93CF93DF932B
:1029A0008C01009791F4CB01DF91CF911F910F9192
:1029B000FF90EF90DF90CF90BF90AF909F908F905F
:1029C0007F906F905F904F90B6CEFC01E60FF71F9F
:1029D0009C0122503109E217F30708F4AAC0D9017B
:1029E000CD91DC911197C617D70718F1C530D105E5
:1029F00070F0CE0104978617970748F0C61BD70BD7
:102A00002297C193D1936D937C93CF0130DFC8019E
:102A1000DF91CF911F910F91FF90EF90DF90CF90BA
:102A2000BF90AF909F908F907F906F905F904F90EE
:102A300008955B01AC1ABD0A4C018C0E9D1EA0913D
:102A40005003B0915103512C412CF12CE12C1097E3
:102A500031F580914E0390914F038815990509F047
:102A60005CC04616570608F058C08091100290913D
:102A70001102009741F48DB79EB740911402509116
:102A80001502841B950BE817F90708F052C0F09364
:102A90004F03E0934E03F90171836083B8CF8D91AA
:102AA0009C91119712966C90129713967C901397A5
:102AB000A815B90559F56C0142E0C40ED11CCA1421
:102AC000DB0420F1AC014A195B09DA011296159773
:102AD00080F06282738251834083D9016D937C932D
:102AE000E114F10471F0D7011396FC93EE93129761
:102AF0008ECF22968C0F9D1FF90191838083F30165
:102B0000EFCFF0935103E093500381CF481659065D
:102B100008F42C017D01D3019ACFCB010CDE7C019E
:102B2000009739F0AE01B8010FD0C801A0DE8701CF
:102B30006ECF10E000E06BCF9111089581568A515D
:102B400008F4805285580895FB01DC0102C0019011
:102B50000D9241505040D8F70895FB01DC018D9152
:102B6000019080190110D9F3990B0895FB01DC0144
:0E2B700001900D920020E1F70895F894FFCF38
:102B7E00EB04EB04EB04EB04EB04EB04EB04EB04CF
:102B8E0000005203800000000000D60139016E01E2
:102B9E0022029F017D019101000000000507A80699
:102BAE00EC040D0A00203000554944207461673A48
:102BBE0020004D6573736167653A200031323543ED
:102BCE0035443432004132464141333432003C41C7
:102BDE00726475696E6F2069732072656164793EE7
:102BEE0000416C746974756465206D617070656404
:0C2BFE003A003C52657475726E3E000097
:020000023000CC
:10E000000D9489F10D94B2F10D94B2F10D94B2F129
:10E010000D94B2F10D94B2F10D94B2F10D94B2F1F0
:10E020000D94B2F10D94B2F10D94B2F10D94B2F1E0
:10E030000D94B2F10D94B2F10D94B2F10D94B2F1D0
:10E040000D94B2F10D94B2F10D94B2F10D94B2F1C0
:10E050000D94B2F10D94B2F10D94B2F10D94B2F1B0
:10E060000D94B2F10D94B2F10D94B2F10D94B2F1A0
:10E070000D94B2F10D94B2F10D94B2F10D94B2F190
:10E080000D94B2F10D94B2F10D94B2F10D94B2F180
:10E090000D94B2F10D94B2F10D94B2F10D94B2F170
:10E0A0000D94B2F10D94B2F10D94B2F10D94B2F160
:10E0B0000D94B2F10D94B2F10D94B2F10D94B2F150
:10E0C0000D94B2F10D94B2F10D94B2F10D94B2F140
:10E0D0000D94B2F10D94B2F10D94B2F10D94B2F130
:10E0E0000D94B2F141546D656761323536300041AF
:10E0F000726475696E6F206578706C6F72657220DE
:10E1000073746B3530305632206279204D4C530099
:10E11000426F6F746C6F616465723E004875683F52
:10E1200000436F6D70696C6564206F6E203D200048
:10E130004350552054797065202020203D20005FF9
:10E140005F4156525F415243485F5F3D2000415658
:10E1500052204C696243205665723D20004743437C
:10E160002056657273696F6E203D20004350552024
:10E1700049442020202020203D20004C6F7720663D
:10E18000757365202020203D20004869676820665F
:10E190007573652020203D200045787420667573D6
:10E1A00065202020203D20004C6F636B2066757336
:10E1B000652020203D20004D617220203720323024
:10E1C000313300312E362E3800342E332E350056A2
:10E1D00023202020414444522020206F7020636F70
:10E1E00064652020202020696E73747275637469E1
:10E1F0006F6E2061646472202020496E74657272B3
:10E20000757074006E6F20766563746F7200726A49
:10E210006D702020006A6D70200057686174207056
:10E220006F72743A00506F7274206E6F7420737541
:10E2300070706F72746564004D7573742062652030
:10E2400061206C6574746572002000577269747483
:10E25000696E672045450052656164696E672045B7
:10E26000450045452065727220636E743D00504F35
:10E27000525400303D5A65726F2061646472003FF1
:10E280003D43505520737461747300403D454550C3
:10E29000524F4D207465737400423D426C696E6B41
:10E2A000204C454400453D44756D70204545505215
:10E2B0004F4D00463D44756D7020464C415348001B
:10E2C000483D48656C70004C3D4C69737420492F83
:10E2D0004F20506F72747300513D51756974005234
:10E2E0003D44756D702052414D00563D73686F7707
:10E2F00020696E7465727275707420566563746FF0
:10E30000727300593D506F727420626C696E6B00BD
:10E310002A0011241FBECFEFD1E2DEBFCDBF01E046
:10E320000CBF12E0A0E0B2E0EEE1FDEF03E00BBFB6
:10E3300002C007900D92A030B107D9F712E0A0E01B
:10E34000B2E001C01D92AE30B107E1F70F9460F367
:10E350000D948DFE01E20EBF0FEF0DBF11241FBE05
:10E360000D9460F30D9400F020E030E040ED57E0B4
:10E3700005C0FA013197F1F72F5F3F4F2817390792
:10E38000C0F308959C01260F311DC901A0E0B0E043
:10E390002F5F3F4FABBFFC018791882361F08093D3
:10E3A000C6008091C00086FFFCCF8091C0008064D1
:10E3B0008093C000EACF08958DE08093C6008091DD
:10E3C000C00086FFFCCF8091C00080648093C000B5
:10E3D0008AE08093C6008091C00086FFFCCF8091C8
:10E3E000C00080648093C00008950F94C2F10F9420
:10E3F000DCF10895FC019081992359F09093C600B7
:10E400008091C00086FFFCCF8091C0008064809323
:10E41000C0003196992379F70895282F982F929567
:10E420009F70892F805D8A3308F0895F8093C600D2
:10E430008091C00086FFFCCF8091C00080648093F3
:10E44000C000822F8F70982F905D9A3308F0995FEB
:10E450009093C6008091C00086FFFCCF8091C000E1
:10E4600080648093C00008959C01FB01853691056E
:10E470001CF46330710594F0C90164E670E00F94F8
:10E480002EFE605D7F4F6093C6008091C00086FFC6
:10E49000FCCF8091C00080648093C0002B30310598
:10E4A00014F43297B4F0C90164E670E00F942EFEC4
:10E4B0006AE070E00F942EFE605D7F4F6093C600AF
:10E4C0008091C00086FFFCCF8091C0008064809363
:10E4D000C000C9016AE070E00F942EFEC0968093E0
:10E4E000C6008091C00086FFFCCF8091C000806490
:10E4F0008093C00008951F93182F8EE692EE60E07F
:10E500000F94C2F11093C6008091C00086FFFCCF2B
:10E510008091C00080648093C0000F94DCF11F9153
:10E5200008952F923F924F925F926F927F928F92B7
:10E530009F92AF92BF92CF92DF92EF92FF920F9392
:10E540001F93DF93CF93CDB7DEB762970FB6F894E2
:10E55000DEBF0FBECDBF382E622ECA01DB015C01CB
:10E560006D01772420E2222E2E010894411C511CBB
:10E570008BC081E0A81680E0B80681E0C80680E084
:10E58000D80628F0C601AA27BB270F940DF2BB2797
:10E59000AD2D9C2D8B2D0F940DF28A2D0F940DF225
:10E5A0002092C6008091C00086FFFCCF8091C00001
:10E5B00080648093C0009DE29093C6008091C0006B
:10E5C00086FFFCCF8091C00080648093C0002092C1
:10E5D000C6008091C00086FFFCCF8091C00080649F
:10E5E0008093C00019828601750188249924A1E0D6
:10E5F0003A1651F03A1620F0B2E03B1661F409C029
:10E600000BBFF701779007C0C7010F9477FE782EF4
:10E6100002C0F7017080872D0F940DF22092C60082
:10E620008091C00086FFFCCF8091C0008064809301
:10E63000C000872D8052F401EF70F0708F3520F408
:10E64000E40DF51D708204C0E40DF51D8EE280839B
:10E650000894E11CF11C011D111D0894811C911CE2
:10E6600090E18916910409F0C2CF80E190E0A0E02A
:10E67000B0E0A80EB91ECA1EDB1E198AC2010F9493
:10E68000FAF10F94DCF16A94662009F072CF629679
:10E690000FB6F894DEBF0FBECDBFCF91DF911F91B3
:10E6A0000F91FF90EF90DF90CF90BF90AF909F9031
:10E6B0008F907F906F905F904F903F902F90089534
:10E6C0002F923F924F925F926F927F928F929F9282
:10E6D000AF92BF92CF92DF92EF92FF920F931F9370
:10E6E000DF93CF93CDB7DEB7CD53D1400FB6F894BB
:10E6F000DEBF0FBECDBF01E20EBF0FEF0DBF94B75F
:10E70000F894A89514BE80916000886180936000A1
:10E7100010926000789493FF05C0E0910002F091A0
:10E7200001021995279A2F9A8091C00082608093E8
:10E73000C00080E18093C40088E18093C1000000A4
:10E74000EE24FF24870144E0A42EB12CCC24DD2448
:10E7500024C0C5010197F1F70894E11CF11C011DCB
:10E76000111D21E2E2162EE4F20620E0020720E06D
:10E77000120718F031E0C32ED12CC801B70127ECE5
:10E780003BE140E050E00F9441FE611571058105C9
:10E79000910519F485B1805885B98091C00087FD35
:10E7A00003C0C114D104A9F2A6014F5F5F4FC25E3E
:10E7B000DE4F59834883CE51D140C25EDE4F8881FF
:10E7C0009981CE51D140019711F00D9410FEC05D9A
:10E7D000DE4F19821882C053D14060E0C15DDE4F28
:10E7E0001882CF52D14088249924C35DDE4F19820C
:10E7F0001882CD52D140C05EDE4F188219821A8233
:10E800001B82C052D140CE5CDE4F188219821A8220
:10E810001B82C253D140EE24FF2487010BBFF701B6
:10E8200007911691C45CDE4F19830883CC53D14005
:10E830000D940BFEC25EDE4F28813981CE51D1404E
:10E840002130310509F52091C600C25EDE4F1982E4
:10E850001882CE51D14022C02F5F3F4F4F4F5F4FA4
:10E86000213082E138078AE7480780E0580780F0C6
:10E87000C45CDE4FE881F981CC53D140EF5FFF4F9C
:10E8800019F0EE27FF27099420E030E040E050E047
:10E890008091C00087FFE0CF2091C600C35DDE4FAE
:10E8A00048815981CD52D1404F5F5F4FC35DDE4FEC
:10E8B00059834883CD52D140213209F063C64A3092
:10E8C000510508F05FC60894811C911C53E0851621
:10E8D000910409F059C600E010E018C081E280936D
:10E8E000C6008091C00086FFFCCF8091C00080648C
:10E8F0008093C0002F5F3F4F2931310579F70F9486
:10E90000DCF10F5F1F4F0530110519F020E030E0FA
:10E91000E5CF10920A0210920B0210920C02109294
:10E920000D02109206021092070210920802109235
:10E930000902109202021092030210920402109235
:10E9400005028FEE90EE60E00F94F5F180E191EE1C
:10E9500060E00F94C2F18091C00087FFFCCF9091DE
:10E96000C600903608F09F759032B8F09093C600BC
:10E970008091C00086FFFCCF8091C00080648093AE
:10E98000C000A0E2A093C6008091C00086FFFCCF2B
:10E990008091C00080648093C000983409F4D7C18E
:10E9A0009934B8F4923409F459C1933458F490333B
:10E9B00019F1903308F4E3C59F33A1F1903409F0C5
:10E9C000DEC5BDC0953409F470C1963409F0D7C5D1
:10E9D00098C1923509F42BC2933538F49C3409F46C
:10E9E000F5C1913509F0CBC518C2963509F445C279
:10E9F000993509F0C4C567C483E792EE62E00F94CD
:10EA0000F5F110920602109207021092080210927D
:10EA1000090210920A0210920B0210920C0210923C
:10EA20000D0213C18FE792EE62E00F94F5F18FEEC5
:10EA300090EE60E00F94F5F181E291EE60E00F94CA
:10EA4000C2F187EB91EE60E00F94F5F180E391EE77
:10EA500060E00F94C2F184EE90EE60E00F94F5F167
:10EA60008FE391EE60E00F94C2F186E090E061E008
:10EA700070E00F9434F20F94DCF18DE591EE60E0DC
:10EA80000F94C2F189EC91EE60E00F94F5F18EE401
:10EA900091EE60E00F94C2F183EC91EE60E00F9490
:10EAA000F5F18CE691EE60E00F94C2F18EE10F94E7
:10EAB0000DF288E90F940DF281E00F940DF20F949E
:10EAC000DCF18BE791EE60E00F94C2F119E0E0E039
:10EAD000F0E010935700E4918E2F0F940DF20F94F5
:10EAE000DCF18AE891EE60E00F94C2F1E3E0F0E03F
:10EAF00010935700E4918E2F0F940DF20F94DCF1D8
:10EB000089E991EE60E00F94C2F1E2E0F0E0109349
:10EB10005700E4918E2F0F940DF20F94DCF188EAE8
:10EB200091EE60E00F94C2F1E1E0F0E01093570045
:10EB30001491812F0F940DF20F94DCF107CF8BE825
:10EB400092EE62E00F94F5F18BE492EE60E00F94A8
:10EB5000F5F10F94DCF100E010E019C0C8016F2D51
:10EB60000F947FFEFF2031F489E492EE60E00F9471
:10EB7000C2F10BC0F092C6008091C00086FFFCCFAE
:10EB80008091C00080648093C0000F5F1F4FC80158
:10EB900081519F41A0E0B0E0ABBFFC01F790BAE229
:10EBA000FB1621F0E2E000301E07C1F60F94DCF105
:10EBB0000F94DCF187E592EE60E00F94F5F10F948D
:10EBC000DCF1CC24DD2400E010E01EC0C8010F946D
:10EBD00077FEF82E882331F489E492EE60E00F94FA
:10EBE000C2F10BC08093C6008091C00086FFFCCFAD
:10EBF0008091C00080648093C000FE1419F00894D6
:10EC0000C11CD11C0F5F1F4FC80181519F41A0E063
:10EC1000B0E0ABBFFC01E790FAE2EF1621F022E092
:10EC20000030120799F60F94DCF10F94DCF182E6C4
:10EC300092EE60E00F94C2F1C60161E070E00F94C3
:10EC400034F20F94DCF10F94DCF110920202109276
:10EC50000302109204021092050278CE89E992EE26
:10EC600062E00F94F5F1279A2F9A16C02F9880E052
:10EC700090E0E0EDF7E03197F1F7019684369105E9
:10EC8000C1F72F9A80E090E0E0EDF7E03197F1F7DF
:10EC9000019684369105C1F78091C00087FFE6CFC9
:10ECA0008091C00087FFFCCF64C485EA92EE62E0E9
:10ECB0000F94F5F140910202509103026091040219
:10ECC0007091050281E020E10F9491F2809102029F
:10ECD00090910302A0910402B091050280509F4FD1
:10ECE000AF4FBF4F8093020290930302A0930402A0
:10ECF000B093050280509041A040B04008F426CE69
:10ED0000A4CF83EB92EE62E00F94F5F140910602FE
:10ED100050910702609108027091090280E020E1A1
:10ED20000F9491F28091060290910702A09108023F
:10ED3000B091090280509F4FAF4FBF4F80930602A2
:10ED400090930702A0930802B0930902FFCD80ECD4
:10ED500092EE62E00F94F5F183E792EE60E00F949B
:10ED6000F5F18FE792EE60E00F94F5F18BE892EE0B
:10ED700060E00F94F5F189E992EE60E00F94F5F10F
:10ED800085EA92EE60E00F94F5F183EB92EE60E09D
:10ED90000F94F5F180EC92EE60E00F94F5F187ECC2
:10EDA00092EE60E00F94F5F188ED92EE60E00F9442
:10EDB000F5F18FED92EE60E00F94F5F18AEE92EEB0
:10EDC00060E00F94F5F183E093EEBDCD87EC92EE19
:10EDD00062E00F94F5F181E40F947BF282E40F94EA
:10EDE0007BF283E40F947BF284E40F947BF285E45E
:10EDF0000F947BF286E40F947BF287E40F947BF20E
:10EE000088E40F947BF28AE40F947BF28BE40F94F6
:10EE10007BF28CE40F947BF299CD88ED92EE62E068
:10EE20000F94F5F1772473948824992409C48FED05
:10EE300092EE62E00F94F5F140910A0250910B02BC
:10EE400060910C0270910D0282E020E10F9491F22A
:10EE500080910A0290910B02A0910C02B0910D02D8
:10EE600080509F4FAF4FBF4F80930A0290930B0289
:10EE7000A0930C02B0930D0269CD8AEE92EE62E08F
:10EE80000F94F5F184EE90EE60E00F94F5F18FECC5
:10EE900091EE60E00F94F5F1662477244301CC5D98
:10EEA000DE4F19821882C452D140D401C301B695F5
:10EEB000A79597958795CA5DDE4F88839983AA8326
:10EEC000BB83C652D140CC5DDE4FA881B981C4520C
:10EED000D1401196CC5DDE4FB983A883C452D14096
:10EEE000CD0162E070E00F9434F2B0E2B093C6005E
:10EEF0008091C00086FFFCCF8091C0008064809329
:10EF0000C000EDE2E093C6008091C00086FFFCCF18
:10EF10008091C00080648093C000F0E2F093C6004E
:10EF20008091C00086FFFCCF8091C00080648093F8
:10EF3000C000CA5DDE4FE880F9800A811B81C6529D
:10EF4000D140BB27A12F902F8F2D0F940DF2CA5DBA
:10EF5000DE4F8881C652D1400F940DF2B0E2FB2EF5
:10EF6000F092C6008091C00086FFFCCF8091C00067
:10EF700080648093C0000DE30093C6008091C000C0
:10EF800086FFFCCF8091C00080648093C00010E2B7
:10EF90001093C6008091C00086FFFCCF8091C00016
:10EFA00080648093C0008BBEF3012791C65DDE4F65
:10EFB0002883CA52D140A22EBB24CC24DD2408943D
:10EFC000611C711C811C911C8BBEF3018791282E42
:10EFD0003324442455240894611C711C811C911C09
:10EFE0008BBEF3013791C55DDE4F3883CB52D140E4
:10EFF0000894611C711C811C911C8BBEF30147910C
:10F00000C45DDE4F4883CC52D140ADEFEA2EAFEF66
:10F01000FA2EAFEF0A2FAFEF1A2F6E0C7F1C801E57
:10F02000911E142D032DF22CEE24EA0CFB1C0C1D5A
:10F030001D1D0F940DF220E22093C6008091C000A8
:10F0400086FFFCCF8091C00080648093C000C65DC5
:10F05000DE4F8881CA52D1400F940DF230E23093D6
:10F06000C6008091C00086FFFCCF8091C000806404
:10F070008093C000C45DDE4F8881CC52D1400F9494
:10F080000DF240E24093C6008091C00086FFFCCFA5
:10F090008091C00080648093C000C55DDE4F888190
:10F0A000CB52D1400F940DF250E25093C6008091A4
:10F0B000C00086FFFCCF8091C00080648093C000B8
:10F0C0008FEFE8168FEFF80680E0080780E018075A
:10F0D00031F484E092EE60E00F94C2F1DFC0D80119
:10F0E000C7018070907CA070B0708050904CA040A0
:10F0F000B040D1F52FEF3FE340E050E0E222F322B1
:10F1000004231523CA5DDE4FA880B980CA80DB8046
:10F11000C652D140AE0CBF1CC01ED11EAA0CBB1CD7
:10F12000CC1CDD1C8EE092EE60E00F94C2F1BB2798
:10F13000A12F902F8F2D0F940DF28E2D0F940DF285
:10F1400030E23093C6008091C00086FFFCCF8091F2
:10F15000C00080648093C0004EE34093C60080915D
:10F16000C00086FFFCCF87C08EE09EEFA0E0B0E03D
:10F17000E822F9220A231B239CE0E91694E9F90608
:10F1800090E0090790E0190709F088C0C45DDE4FE0
:10F19000A881CC52D140EA2EFF2400E010E0102FCD
:10F1A0000F2DFE2CEE24C55DDE4FB881CB52D14031
:10F1B000EB0EF11C011D111DD601C501817090706F
:10F1C000A070B070DC0199278827E80EF91E0A1F8D
:10F1D0001B1F20EF30E040E050E0A222B322C42207
:10F1E000D52241E1AA0CBB1CCC1CDD1C4A95D1F7F1
:10F1F000EA0CFB1C0C1D1D1D81E090E0A0E0B0E0BE
:10F20000282239224A225B2235E1220C331C441C7D
:10F21000551C3A95D1F7E20CF31C041D151D57013E
:10F220006801AA0CBB1CCC1CDD1C85E192EE60E0E1
:10F230000F94C2F1C801AA27BB270F940DF2BB2778
:10F24000A12F902F8F2D0F940DF28E2D0F940DF274
:10F2500090E29093C6008091C00086FFFCCF809121
:10F26000C00080648093C000AEE3A093C60080918C
:10F27000C00086FFFCCF8091C00080648093C000F6
:10F28000C601AA27BB270F940DF2BB27AD2D9C2DDD
:10F290008B2D0F940DF28A2D0F940DF20F94DCF14B
:10F2A000CC5DDE4FE881F981C452D140F99709F471
:10F2B0004DCBF4E0EF2EF12C012D112D6E0C7F1CA7
:10F2C000801E911EF2CD83E093EE62E00F94F5F183
:10F2D0008AE192EE60E00F94C2F18091C00087FF56
:10F2E000FCCF1091C6001F751093C6008091C0001E
:10F2F00086FFFCCF8091C00080648093C0000F9493
:10F30000DCF1812F81548A3108F036C1163409F4BA
:10F3100095C0173490F4133409F44EC0143430F40B
:10F320001134F1F0123409F01DC130C0143409F465
:10F3300059C0153409F016C16BC01A3409F4C4C0A1
:10F340001B3438F4173409F48FC0183409F00AC19B
:10F35000A1C01B3409F4D2C01C3409F003C1E8C0B9
:10F360008FEF81B90DC082B1809582B980E090E0C5
:10F37000E0EDF7E03197F1F70196883C9105C1F790
:10F380008091C00087FFEFCF12B8EFC08FEF84B934
:10F390000DC085B1809585B980E090E0E0EDF7E0A3
:10F3A0003197F1F70196883C9105C1F78091C00033
:10F3B00087FFEFCF15B8D9C08FEF87B90DC088B1DF
:10F3C000809588B980E090E0E0EDF7E03197F1F7C3
:10F3D0000196883C9105C1F78091C00087FFEFCF6F
:10F3E00018B8C3C08FEF8AB90DC08BB180958BB9A7
:10F3F00080E090E0E0EDF7E03197F1F70196883C8E
:10F400009105C1F78091C00087FFEFCF1BB8ADC059
:10F410008FEF8DB90DC08EB180958EB980E090E0F0
:10F42000E0EDF7E03197F1F70196883C9105C1F7DF
:10F430008091C00087FFEFCF1EB897C08FEF80BBD1
:10F440000DC081B3809581BB80E090E0E0EDF7E0F6
:10F450003197F1F70196883C9105C1F78091C00082
:10F4600087FFEFCF11BA81C08FEF83BB0DC084B38C
:10F47000809584BB80E090E0E0EDF7E03197F1F714
:10F480000196883C9105C1F78091C00087FFEFCFBE
:10F4900014BA6BC08FEF809301010FC080910201FD
:10F4A00080958093020180E090E0E0EDF7E03197F5
:10F4B000F1F70196883C9105C1F78091C00087FF64
:10F4C000EDCF1092020151C08FEF809304010FC065
:10F4D0008091050180958093050180E090E0E0ED4A
:10F4E000F7E03197F1F70196883C9105C1F78091DB
:10F4F000C00087FFEDCF1092050137C08FEF8093DA
:10F5000007010FC08091080180958093080180E079
:10F5100090E0E0EDF7E03197F1F70196883C910536
:10F52000C1F78091C00087FFEDCF109208011DC088
:10F530008FEF80930A010FC080910B01809580931B
:10F540000B0180E090E0E0EDF7E03197F1F70196F4
:10F55000883C9105C1F78091C00087FFEDCF1092E4
:10F560000B0103C085E292EEEEC98091C00087FFD7
:10F57000FCCF8091C600EAC988E392EEE4C98CE131
:10F5800091EEE1C988249924933011F1943028F444
:10F59000913089F09230B8F408C0953061F195301F
:10F5A000F0F0963009F048C043C02B3109F042C951
:10F5B00091E06BE13FC96227C15DDE4F2883CF52E6
:10F5C000D14092E037C9B22FA0E0622793E032C960
:10F5D000822F90E0A82BB92B622794E02BC92E3004
:10F5E00009F039C3622795E0C05DDE4F19821882A9
:10F5F000C053D1401FC9E1E0F0E0EC0FFD1FC05D3A
:10F60000DE4F08811981C053D140E00FF11F2083E4
:10F610000F5F1F4FC05DDE4F19830883C053D14079
:10F6200062270A171B0709F005C9D80196E002C92D
:10F63000261709F010C303C0973009F0FBC87724E0
:10F640009981933109F412C19431C8F4963009F4C8
:10F65000D8C0973050F4923009F406C1933009F4C1
:10F660006DC0913009F059C253C0913109F477C08F
:10F67000923108F0BBC0903109F04FC2F5C098310B
:10F6800009F487C0993150F4953109F4EFC09531F0
:10F6900008F4C6C1963109F040C2C2C19A3109F4DA
:10F6A0006CC09A3108F491C09B3109F45BC09D3164
:10F6B00009F033C29D81903359F48F81882311F46E
:10F6C0009EE11CC0813011F091E018C098E916C08D
:10F6D000892F807591F0903539F4E0E0F0E089E011
:10F6E0008093570094910AC0983539F4E3E0F0E034
:10F6F00089E080935700949101C090E01A821B82A8
:10F700008D818C831D829E831F8227E030E009C299
:10F710001A8288E08B8381E48C8386E58D8382E581
:10F720008E8389E48F8383E5888780E589878FE5E9
:10F730008A8782E38B872BE030E0F3C18A818139AD
:10F7400041F0823941F0803911F48FE005C080E04A
:10F7500003C082E001C08AE01A828B8344C0772410
:10F76000739482C08D81882311F48EE12CC0813086
:10F7700011F081E028C088E926C01A82E1E0F0E0BB
:10F7800089E08093570084918B831C8224E030E0D1
:10F79000C8C18B81803589F48C81883039F4E2E0EE
:10F7A000F0E089E08093570084910DC0E0E0F0E044
:10F7B00089E080935700849106C0E3E0F0E089E09F
:10F7C0008093570084911A82DFCF8D81836C99E0FA
:10F7D000E1E0F0E0082E90935700E89507B600FCB2
:10F7E000FDCF1A821B8223E030E09BC180EC8A832C
:10F7F000CE5CDE4F188219821A821B82C253D1401E
:10F800008EC18A8190E0A0E0B0E0582F44273327D2
:10F8100022278B8190E0A0E0B0E0DC0199278827C7
:10F82000282B392B4A2B5B2B8D8190E0A0E0B0E098
:10F83000282B392B4A2B5B2B8C8190E0A0E0B0E089
:10F84000BA2FA92F982F8827282B392B4A2B5B2BCF
:10F85000220F331F441F551FC05EDE4F288339839C
:10F860004A835B83C052D1401A8259C13A81C95C34
:10F87000DE4F3883C753D140CA5CDE4F1882C6536F
:10F88000D1408B81C82EDD24CA5CDE4F488159816E
:10F89000C653D140C42AD52A933109F082C0CE5C28
:10F8A000DE4F88819981AA81BB81C253D1408050AB
:10F8B000904CA340B04030F583E0CE5CDE4FE88052
:10F8C000F9800A811B81C253D140F70100935B008C
:10F8D00080935700E89507B600FCFDCFCE5CDE4F65
:10F8E000088119812A813B81C253D14000501F4FAA
:10F8F0002F4F3F4FCE5CDE4F088319832A833B8313
:10F90000C253D140C05EDE4F488159816A817B81FC
:10F91000C052D140DE011B9631E08C9111962C91A2
:10F9200011971296C75CDE4F2883C953D140C85C3B
:10F93000DE4F1882C853D14090E0C85CDE4FE881AA
:10F94000F981C853D1408E2B9F2B0C01FA01609393
:10F950005B0030935700E89511244E5F5F4F6F4F67
:10F960007F4F0EEFE02E0FEFF02ECE0CDF1CC114F8
:10F97000D10499F685E0C05EDE4F088119812A81A5
:10F980003B81C052D140F80120935B008093570027
:10F99000E89507B600FCFDCF81E180935700E8951C
:10F9A00035C0C05EDE4F88819981AA81BB81C0527B
:10F9B000D140B695A795979587957C018601ABE0D8
:10F9C000AA2EB12CAC0EBD1E0BC0D5016D915D01F0
:10F9D000C7010F947FFE0894E11CF11C01501040F8
:10F9E0000115110591F7A60160E070E0440F551F65
:10F9F000661F771FC05EDE4FE880F9800A811B8199
:10FA0000C052D1404E0D5F1D601F711F1A82C05E33
:10FA1000DE4F488359836A837B83C052D1407FC0C5
:10FA2000FA80C55CDE4FF882CB53D140C65CDE4F16
:10FA30001882CA53D1408B81C82EDD24C65CDE4FAC
:10FA400008811981CA53D140C02AD12A1A828981DA
:10FA5000BE016D5F7F4F843121F59601C05EDE4FA0
:10FA6000E880F9800A811B81C052D1400BBFF701A9
:10FA700087919691DB018C9311969C936E5F7F4FDB
:10FA8000D801C7010296A11DB11DC05EDE4F88835B
:10FA90009983AA83BB83C052D14022503040F1F6F3
:10FAA00036C0C05EDE4F288139814A815B81C052F9
:10FAB000D1400894C108D108760100E010E0089414
:10FAC000C11CD11C0894E11CF11C011D111DE20E8A
:10FAD000F31E041F151F21BDBB27A52F942F832FB5
:10FAE00082BD2F5F3F4F4F4F5F4FF89A80B5DB01CC
:10FAF0008D93BD012E153F054007510761F7C05E8C
:10FB0000DE4F288339834A835B83C052D1409601FC
:10FB10002D5F3F4FFB01108204C080EC8A8322E0FE
:10FB200030E08BE18093C6008091C00086FFFCCF5F
:10FB30008091C00080648093C000C15DDE4FF88179
:10FB4000CF52D140F093C6008091C00086FFFCCF19
:10FB50008091C00080648093C000432F3093C60022
:10FB60008091C00086FFFCCF8091C00080648093AC
:10FB7000C000922F2093C6008091C00086FFFCCF6A
:10FB80008091C00080648093C0008EE08093C600A6
:10FB90008091C00086FFFCCF8091C000806480937C
:10FBA000C00065E1C15DDE4FE880CF52D1406E25D7
:10FBB00069276427FE01319610C090819093C6009A
:10FBC0008091C00086FFFCCF31968091C000806498
:10FBD0008093C0006927215030402115310569F715
:10FBE0006093C6008091C00086FFFCCF8091C0006A
:10FBF00080648093C00085B1805885B9772081F4F6
:10FC0000C15DDE4F0881CF52D1400F5FC15DDE4F35
:10FC10000883CF52D14090E0A0E0B0E00D941AF4F8
:10FC200027982F9880E090E020ED37E0F901319798
:10FC3000F1F7019684369105C9F700008091C00064
:10FC40008D7F8093C00081E180935700E895EE2777
:10FC5000FF270994FFCF90E00D941AF497FB092E2B
:10FC600007260AD077FD04D02ED006D000201AF443
:10FC7000709561957F4F0895F6F7909581959F4F08
:10FC80000895A1E21A2EAA1BBB1BFD010DC0AA1FDD
:10FC9000BB1FEE1FFF1FA217B307E407F50720F0F5
:10FCA000A21BB30BE40BF50B661F771F881F991F70
:10FCB0001A9469F760957095809590959B01AC01B9
:10FCC000BD01CF010895AA1BBB1B51E107C0AA1FAC
:10FCD000BB1FA617B70710F0A61BB70B881F991FED
:10FCE0005A95A9F780959095BC01CD010895F99991
:10FCF000FECF92BD81BDF89A992780B50895262F31
:10FD0000F999FECF1FBA92BD81BD20BD0FB6F89400
:0EFD1000FA9AF99A0FBE01960895F894FFCF63
:040000033000E000E9
:00000001FF
